:100000000C9420030C9441030C94A4140C9441030D
:100010000C9441030C9441030C9441030C94410350
:100020000C9441030C9441030C9441030C94410340
:100030000C9441030C9441030C94BE180C9441039E
:100040000C94EF180C9441030C9441030C9441035D
:100050000C9441030C9441030C94652F0C944103C0
:100060000C9441030C9441030C9441030C94410300
:100070000C9441030C9441030C9441030C944103F0
:100080000C9441030C9441030C94651A0C944103A5
:100090000C9441030C9441030C9441030C944103D0
:1000A0000C9441030C9441030C9441030C944103C0
:1000B0000C9441030C9441030C9441030C944103B0
:1000C0000C9441030C9441030C9441030C944103A0
:1000D0000C9441030C9441030C9441030C94410390
:1000E0000C9441030C9441030C9441030C94410380
:1000F0000C9441030C9441030C9441030C94410370
:100100000C9441030C9441030C9441030C9441035F
:100110000C9441030C9441030C9441030C9441034F
:100120000C9441030C9441030C9441030C9441033F
:100130000C9441030C9441030C9441030C9441032F
:100140000C9441030C9441030C9441030C9441031F
:100150000C9441030C9441030C9441030C9441030F
:100160000C9421140C9441030C944D140C944103F1
:100170000C9441030C9441030C9441030C944103EF
:100180000C9441030C9441030C9441030C944103DF
:100190000C9441030C9441030C9441030C944103CF
:1001A0000C9441030C9441030C9441030C944103BF
:1001B0000C9441030C9441030C9441030C944103AF
:1001C0000C9441030C9441030C9441030C9441039F
:1001D0000C9441030C9441030C9441030C9441038F
:1001E0000C9441030C944103594B5C4B5F4B9B4B6C
:1001F0009B4B9B4B9B4B9B4B9B4B9B4B9B4B9B4BCF
:100200009B4B9B4B9B4B9B4B9B4B9B4B9B4B9B4BBE
:100210009B4B924B9B4B9B4B7A4B9B4B9B4B9B4BD8
:1002200071499B4B9B4B714B9B4B804B9B4B8F4B1B
:100230009B4B9B4B9B4B9B4B9B4B9B4B9B4B9B4B8E
:100240009B4B9B4B9B4B9B4B654B9B4B6E4B624B1A
:10025000684B5549894B7C49774B9B4B9B4B9B4B40
:1002600058495249744B81499B4B7D4B864B8C4B73
:100270009B4B834B6B4B9B4B9B4B61497A1D8F1D5B
:10028000F81D9E1DF81D731D7F1DF81DF81DF81D1E
:10029000F81DF81D2D1DF81DF81DF81DF81DF81D81
:1002A000F81DB01DF81DF81DC31D8F1DF81D9E1DE6
:1002B000F81D731D7F1DF81DF81DF81DF81DF81D94
:1002C0002D1DF81DF81DF81DF81DF81DF81DB01D99
:1002D000F81DF81DC31DE82C352D352D0C2D352DA1
:1002E000352D1F2D352D352D232D332D352D0A2D53
:1002F000352D352D0E2D352D352D212D352D352D29
:10030000352D102DAA2F0830AE2FC72FCE2FE42F5A
:10031000EC2FF02FF42FF82F00300430CA33D633EF
:10032000E3332334EF33F533133421340C94AE2FFD
:100330000C94AD0C0C947A4B0C9400300C94232D3F
:100340000C94AD2C0C9421340C948C4B0C940C2DEF
:100350000C9402130C949E1D0C946E4B0C941D3047
:100360000C94B8030C947A1D0C9452490C94744B61
:100370000C9423340C94774B0C94594B0C94DA2E38
:100380000C947F1D0C94582A0C94F82F0C94624BFB
:100390000C94F02F0C94362D0C94EC2F0C947C497B
:1003A0000C94E3330C94332D0C94C72F0C941F2D15
:1003B0000C94F5330C94EC050C9451240C94731D9F
:1003C0000C9461490C9443240C94684B0C945E2467
:1003D0000C9413340C9404300C94102D0C94CA33E8
:1003E0000C94E82C0C94AC030C94804B0C94EF33DD
:1003F0000C94CD2E0C9471490C94834B0C94864B29
:100400000C94F42F0C94F42E0C9425130C94F81DDA
:100410000C9451300C94E72E0C94714B0C94924B2D
:100420000C94EF230C9455490C946B4B0C94C31D06
:100430000C94D6330C94E42F0C94980C0C945849DB
:100440000C94CE2F0C9408300C94CB220C94B01D3D
:100450000C942C2C0C945F4B0C9484260C94894B9C
:100460000C94AA2F0C9462290C948F4B0C94814904
:100470000C94212D0C940A2D0C947D4B0C945C4B08
:100480000C940E2D0C94E1220C94654B0C941D25BC
:100490000C94352D0C942D1D0C948F1D0C949B4B9E
:1004A0006E616E00696E660000407A10F35A00A01B
:1004B000724E18090010A5D4E80000E8764817002D
:1004C00000E40B54020000CA9A3B000000E1F5056D
:1004D000000080969800000040420F000000A086B7
:1004E00001000000102700000000E80300000000E9
:1004F0006400000000000A0000000000010000008D
:1005000000002C76D888DC674F0823DFC1DFAE59A6
:10051000E1B1B796E5E3E453C63AE651997696E839
:10052000E6C28426EB898C9B62ED407C6FFCEFBCBD
:100530009C9F40F2BAA56FA5F490055A2AF75C93E8
:100540006B6CF9676DC11BFCE0E40D47FEF520E61E
:10055000B500D0ED902E0300943577050080841E01
:10056000080000204E0A000000C80C333333330F5C
:10057000986E12831141EF8D2114893BE65516CFF9
:10058000FEE6DB18D1844B381BF77C1D901DA4BB05
:10059000E424203284725E228100C9F124ECA1E5BA
:1005A0003D270403030303020100FFFEFDFCFAF8EC
:1005B000F4EF1D2500000000842600000000582AEA
:1005C00000000000622900000000000000000000A0
:1005D00000004324EF2300000000000000000000A2
:1005E000000000000000000000000000000000000B
:1005F0005E245124000000000000080101010101F7
:1006000001010104010802010101010201010201CD
:1006100002010102010202010101010104010101C3
:100620000201015130362DAD2C1D30CD2EDA2EE7D2
:100630002EF42E010102010201010101010101005C
:1006400011241FBECFEFCDBFDFE5DEBF00E00CBF42
:100650001FE2A0E0B0E2ECEDFAEA00E00BBF02C05E
:1006600007900D92AE3BB107D9F722E4AEEBBFE2A3
:1006700001C01D92AA39B207E1F70E94CE480C943E
:100680006C550C94000082E08093C62F61E080E0FE
:100690000E94101A60E081E00E94101A61E082E07E
:1006A0000C94101A84E08093C62F61E080E00E94D1
:1006B000101A61E081E00E94101A60E082E00C9460
:1006C000101A85E08093C62F60E080E00E94101A27
:1006D00061E081E00E94101A60E082E00C94101A40
:1006E00086E08093C62F61E080E00E94101A60E0EF
:1006F00081E00E94101A60E082E00C94101A87E0FA
:100700008093C62F60E080E00E94101A60E081E0D4
:100710000E94101A60E082E00C94101A83E080932B
:10072000C62F60E080E00E94101A60E081E00E9425
:10073000101A61E082E00C94101A81E08093C62FB9
:1007400060E080E00E94101A61E081E00E94101ACF
:1007500061E082E00C94101A61E080E00E94101ABF
:1007600061E081E00E94101A61E082E00C94101AAE
:10077000EF92FF920F931F9380E00E94491A882303
:1007800039F081E01F910F91FF90EF900C94AE2310
:100790008091C62F843019F40E94610306C0853011
:1007A000E8F4813099F40E944303E12CF12C08EB2A
:1007B00013E020E040E653EE66E170E081E00E9445
:1007C00000171F910F91FF90EF900895823019F458
:1007D0000E945203EACF0E949D03E7CF863019F4AE
:1007E0000E947F03E2CF863018F40E947003DDCFB1
:1007F000873089F70E948E03D8CFCF92DF92EF9295
:100800000F93CF93DF93EC01888181112CC08091ED
:10081000C52F8130F9F41092C52F8091C42F2A8101
:100820003B814C815D81811109C06E0188E0C80E59
:10083000D11CEF800E81698180E02BC00E8169811F
:1008400080913C200E94190D80913C208F5F809305
:100850003C2021C08330C9F54A815B816C817D8158
:100860002E8189812AC0813081F50E9412188091E1
:10087000C52F8230D1F41092C52F6E018EE1C80EC3
:10088000D11C288D398D4A8D5B8DED8C0C8D6F8937
:1008900081E00E94141261E082E0DF91CF910F911C
:1008A000EF90DF90CF900C94101A853071F4488D42
:1008B000598D6A8D7B8D2C8D8F89DF91CF910F9112
:1008C000EF90DF90CF900C943E11DF91CF910F917C
:1008D000EF90DF90CF900895CF93DF931F92CDB725
:1008E000DEB781110CC081E0898340E0BE016F5FFB
:1008F0007F4F82E50E949E290E94722E03C081E0F4
:100900000E94AE230F90DF91CF910895882319F0B4
:1009100081E00C94AE230895EF92FF920F931F9302
:10092000CF938091C72F882379F11092C72F0E940F
:10093000430A80E00E94C3080E94680C0E943909A3
:10094000C5E060E080E00E94101A60E081E00E9453
:10095000101A60E082E00E94101A80E593EC0E9479
:10096000521661E080E00E94101A61E081E00E946E
:10097000101A61E082E00E94101A80E593EC0E9458
:100980005216C150F1F65FC08091C62F81114BC045
:100990000E946508811104C00E94430A80E04BC098
:1009A0008091A034811149C080918A3490918B3418
:1009B0008130910519F40E949D0322C08230910577
:1009C00019F40E9443031CC08330910519F40E945E
:1009D000520316C08430910519F40E94610310C0BF
:1009E0008530910519F40E9470030AC08630910584
:1009F00019F40E947F0304C0892B11F40E948E0316
:100A00008091C62F8823C9F00E94C308E12CF12CE5
:100A10000CEA13E020E040E856E968E970E081E084
:100A20000E9400170AC00E946508811102C00E943E
:100A3000430A8091C62F0E94C3080E94680C0E943E
:100A400039091092C32FCF911F910F91FF90EF9012
:100A5000089508954F925F926F927F928F929F9226
:100A6000AF92BF92CF92DF92EF92FF920F931F93BC
:100A7000CF93DF93CDB7DEB76997CDBFDEBF6C01F3
:100A800000913A3710913B37000F111F81E090E041
:100A90007C0100903C3702C0EE0CFF1C0A94E2F788
:100AA00083E098E20E947353F60180811F928F9336
:100AB0008FE098E29F938F930E945953F6018081B3
:100AC0001F928F938FE298E29F938F930E945953C6
:100AD000F4E1EF9E70011124CDBFDEBF512C712CCB
:100AE00090E0612CFE0131964F0140E2442E55E624
:100AF000A52E58E2B52EF6014181641608F050C0CB
:100B0000F8E07F1202C05394712CF601E50DF11D3F
:100B1000228130E0072C02C0359527950A94E2F730
:100B2000739481E0890FE92FF0E020FD02C020E3FB
:100B300001C021E3E80DF91D2083853021F08B30C1
:100B400011F0813131F4F401E80FF11D408282E0AF
:100B5000890F873151F0662D70E0242F30E021504D
:100B60003109AB0142175307C1F4F401E80FF11D3D
:100B700010829F928F921F921F92C80117FD0196BB
:100B8000959587959F938F93BF92AF920E945953EB
:100B90000E0D1F1DCDBFDEBF80E06394982FABCF3D
:100BA00082E798E20E9473538AE090E00E946D53BE
:100BB0006996CDBFDEBFDF91CF911F910F91FF905E
:100BC000EF90DF90CF90BF90AF909F908F907F90ED
:100BD0006F905F904F900895CF92DF92EF920F93B6
:100BE0008091C52F8230A9F41092C52FC12CD12C31
:100BF000E12C00E02FEF3FEFA90168E181E00E94C6
:100C0000141261E082E00F91EF90DF90CF900C948E
:100C1000101A853059F420E04FEF5FEFBA0188E1F8
:100C20000F91EF90DF90CF900C943E110F91EF90C9
:100C3000DF90CF9008958627082E8295807F8025AB
:100C4000092E982F82958F700826869598278927D8
:100C5000880F880F880F80250895FC011382148265
:100C600015821682178210861186128616861786BE
:100C7000108A118A128A138A148A158A8091A034E4
:100C80008130A1F018F0823009F156C082E08083F3
:100C9000662329F080918C3490918D3404C080912A
:100CA000D5359091D635838394833DC082E080838F
:100CB000662329F080918C3490918D3404C080910A
:100CC000D5359091D6358383948363C083E0808348
:100CD000662389F070918E3460918F3450919034F6
:100CE0004091913430919234209193349091943486
:100CF0008091953410C07091C9356091CA3550917A
:100D0000CB354091CC353091CD352091CE35909179
:100D1000CF358091D0357383648355834683378381
:100D200020879187828782E0838780919634909193
:100D300097348687978747C083E08083662389F04E
:100D400070918E3460918F345091903440919134F1
:100D500030919234209193349091943480919534D1
:100D600010C07091C9356091CA355091CB35409112
:100D7000CC353091CD352091CE359091CF358091C5
:100D8000D035738364835583468337832087918767
:100D9000828783E083877091983460919934509171
:100DA0009A3440919B3430919C3420919D349091A1
:100DB0009E3480919F3476876787508B418B328B2E
:100DC000238B948B858B8091D7359091D8358183F7
:100DD0009283848795870895AF92BF92CF92DF92D6
:100DE000EF92FF920F931F93CF93DF93CDB7DEB7B0
:100DF0002B97CDBFDEBF8E010F5F1F4F7E018CE0B2
:100E0000E80EF11CD02EC12E580180E090E00E9427
:100E10002513F80181938F018D30A1F4F501108223
:100E20008D2D9C2D0E94B5512B96CDBFDEBFDF913D
:100E3000CF911F910F91FF90EF90DF90CF90BF90D7
:100E4000AF9008958A3051F3EE15FF0539F360E055
:100E500070E00E940213D8CF0F939091A03491308C
:100E6000F1F020F0923009F459C0B8C0882331F075
:100E700080918D348F9380918C3405C08091D635CC
:100E80008F938091D5358F9382E898E29F938F93CB
:100E90000E9459530F900F900F900F908EC088238F
:100EA00031F080918D348F9380918C3405C0809186
:100EB000D6358F938091D5358F9382E898E29F93B2
:100EC0008F930E9459530F900F900F900F90209185
:100ED00098343091993440919A3450919B34609178
:100EE0009C3470919D345F934F933F932F938091E7
:100EF0009E3490919F3400E20E94014F5F934F9384
:100F00003F932F9388E898E29F938F930E945953C1
:100F10008DB79EB70A968DBF9EBFD5C0882339F185
:100F200020918E3430918F3440919034509191348F
:100F300060919234709193345F934F933F932F93CA
:100F4000809194349091953400E20E94014F5F9318
:100F50004F933F932F9388E898E29F938F930E943B
:100F600059538DB79EB70A968DBF9EBF26C020915C
:100F7000C9353091CA354091CB355091CC3560910F
:100F8000CD357091CE355F934F933F932F938091E2
:100F9000CF359091D03500E20E94014F5F934F937F
:100FA0003F932F9388E898E29F938F930E94595321
:100FB0008DB79EB70A968DBF9EBF809197348F9351
:100FC000809196348F9382E898E29F938F930E944A
:100FD00059530F900F900F900F9075C0882339F1DF
:100FE00020918E3430918F344091903450919134CF
:100FF00060919234709193345F934F933F932F930A
:10100000809194349091953400E20E94014F5F9357
:101010004F933F932F9388E898E29F938F930E947A
:1010200059538DB79EB70A968DBF9EBF26C020919B
:10103000C9353091CA354091CB355091CC3560914E
:10104000CD357091CE355F934F933F932F93809121
:10105000CF359091D03500E20E94014F5F934F93BE
:101060003F932F9388E898E29F938F930E94595360
:101070008DB79EB70A968DBF9EBF20919834309150
:10108000993440919A3450919B3460919C34709182
:101090009D345F934F933F932F9380919E34909113
:1010A0009F3400E20E94014F5F934F933F932F9331
:1010B00088E898E29F938F930E9459538DB79EB70B
:1010C0000A968DBF9EBF0F910895EF92FF920F93E6
:1010D0001F93CF93DF93CDB7DEB7AC97CDBFDEBF05
:1010E0009E012F5F3F4F4CE250E060E170E080E0F6
:1010F0000E94FE14853811F480E03BC08E010F5F22
:101100001F4F7E018DE2E80EF11C80E090E0F801B7
:1011100061918F010E941B060E151F05C1F7892BD7
:1011200059F78CE2FE013196A8E8B4E301900D92E4
:101130008A95E1F78EE0FE017A96A8E3B7E3019085
:101140000D928A95E1F740E0BE01685D7F4F80E037
:101150000E949E2940E0BE016F5F7F4F80E50E94A4
:101160009E2940E0BE016D5F7F4F83E50E949E296E
:1011700081E0AC96CDBFDEBFDF91CF911F910F9183
:10118000FF90EF9008952EEF3AEC2093883430933F
:1011900089349DE390938E349FE190938F34109225
:1011A000903494E19093913499E19093923425E2B4
:1011B0002093933494E0909394341092953439E7CB
:1011C000309398343DE53093993437E130939A3435
:1011D0003FEF30939B3430939C3420939D34909315
:1011E0009E3410929F341092A03492E090933D2050
:1011F000813059F481E090E080938A3490938B346D
:1012000010928C3410928D342DC0823019F482E00B
:1012100090E013C0843019F483E090E00EC0853074
:1012200019F484E090E009C0863019F485E090E07C
:1012300004C0873069F486E090E080938A3490930C
:101240008B3410928C3410928D3481E090E00CC07D
:1012500010928A3410928B3481E090E080938C3429
:1012600090938D3482E090E08093963490939734FD
:101270000895EF92FF920F931F93CF93DF93CDB713
:10128000DEB7AC97CDBFDEBF8CE2E8E8F4E3DE0169
:10129000119601900D928A95E1F78EE0E8E3F7E36D
:1012A000DE015A9601900D928A95E1F78091D7352B
:1012B0009091D83589839A838091D5359091D63590
:1012C0008B839C838091DC3588A71BA61CA68E018E
:1012D0000F5F1F4F7E018BE2E80EF11CF801619158
:1012E0008F018BA59CA50E941B068BA79CA70E15A2
:1012F0001F05A1F7AE014F5F5F4F6CE270E080E128
:1013000090E00E943715AC96CDBFDEBFDF91CF9144
:101310001F910F91FF90EF90089586E998E20E9447
:10132000735380EB98E20E94735380EE98E20E9420
:1013300073538FE099E20E9473538EE399E20E9407
:1013400073538CE699E29F938F930E9459530E94A6
:10135000EC069C0133270F900F902430310524F4C4
:101360008093A03481E0089580E00895CF93DF93C7
:101370001F921F92CDB7DEB780E999E29F938F93BA
:101380000E9459530E94EC0689839A830F900F9014
:10139000029748F440E0BE016F5F7F4F87E00E94F4
:1013A000982F81E001C080E00F900F90DF91CF91E6
:1013B0000895CF93DF931F921F92CDB7DEB784EBD2
:1013C00099E29F938F930E9459530E94EC06898360
:1013D0009A830F900F90029748F440E0BE016F5F30
:1013E0007F4F8BE00E94982F81E001C080E00F903A
:1013F0000F90DF91CF910895CF93DF931F921F92AB
:10140000CDB7DEB789EF99E29F938F930E9459532E
:101410000E94EC0689839A830B970F900F90409758
:1014200048F440E0BE016F5F7F4F80E00E949E293C
:1014300081E001C080E00F900F90DF91CF9108957F
:10144000CF93DF931F921F92CDB7DEB783E09AE26E
:101450009F938F930E9459530E94EC0689839A832D
:101460000F900F90029748F440E0BE016F5F7F4FEE
:1014700086E00E94982F81E001C080E00F900F90DD
:10148000DF91CF910895CF93DF93C8E8D4E38AE149
:101490008FA38EE0E8E3F7E3A1EAB4E301900D92B5
:1014A0008A95E1F785E088A719A6DF91CF91089585
:1014B000CF93DF931F921F92CDB7DEB788E39AE2F6
:1014C0009F938F930E9459530E94EC0689839A83BD
:1014D00040E0BE016F5F7F4F82E00E94982F81E065
:1014E0000F900F900F900F90DF91CF9108951F9262
:1014F00080E18F9382E49AE29F938F930E945953E5
:101500000E94EC069C01215031090F900F900F9022
:101510000F902031310510F081E090E08093B034DD
:1015200081E0089588E79AE20E94735380EA9AE284
:101530000E94735382EC9AE20E94735383EE9AE204
:101540000E94735385E09BE20E9473538CE39BE2FD
:101550000E9473531F9284E08F931F921F928EE517
:101560009BE29F938F930E9459530E94EC060F9029
:101570000F900F900F900F900F908530910510F005
:1015800080E090E08093B13481E00895CF93DF93C1
:101590001F921F92CDB7DEB783E89BE29F938F9394
:1015A0000E9459530E94EC0689839A830F900F90F2
:1015B000049748F440E0BE016F5F7F4F83E00E94D4
:1015C000982F81E001C080E00F900F90DF91CF91C4
:1015D0000895CF93DF931F921F92CDB7DEB78CE8AB
:1015E0009BE29F938F930E9459530E94EC0689833C
:1015F0009A8340E0BE016F5F7F4F84E00E94982F86
:1016000081E00F900F900F900F90DF91CF91089590
:1016100085E99BE20E94735381EB9BE20E94735326
:1016200081EC9BE20E94735380ED9BE29F938F932A
:101630000E9459530E94EC069C0133272250310925
:101640000F900F902230310520F480933D2081E0EF
:10165000089580E008958DEF9BE29F938F930E9401
:1016600059530E94EC06E8E8F4E3282F892F880FED
:10167000880B2683978380878187828783878487E7
:1016800085870F900F9081E0089588E39CE29F93F7
:101690008F930E9459530E94EC0680938C34909350
:1016A0008D340F900F9081E00895CF93DF931F92B8
:1016B0001F92CDB7DEB784E79CE29F938F930E9481
:1016C00059530E94EC0689839A8340E0BE016F5F04
:1016D0007F4F80E50E949E2981E00F900F900F9030
:1016E0000F90DF91CF910895CF93DF931F921F92B8
:1016F000CDB7DEB78CE89CE29F938F930E9459533D
:101700000E94EC0689839A830F900F90029748F409
:1017100040E0BE016F5F7F4F88E00E94982F81E01C
:1017200001C080E00F900F90DF91CF910895CF938B
:10173000DF931F921F92CDB7DEB784EB9CE29F939D
:101740008F930E9459530E94EC0689839A830F90CD
:101750000F90029748F440E0BE016F5F7F4F8AE030
:101760000E94982F81E001C080E00F900F90DF91E0
:10177000CF9108958CEE9CE29F938F930E945953D2
:101780000E94EC06E8E8F4E3282F892F880F880BE5
:10179000208B918B828B838B848B858B868B878B25
:1017A0000F900F9081E0089584E19DE29F938F93C5
:1017B0000E9459530E94EC0680939634909397347C
:1017C0000F900F9081E00895CF93DF931F921F92A7
:1017D000CDB7DEB78DE39DE29F938F930E9459535F
:1017E0000E94EC0689839A8340E0BE016F5F7F4FC1
:1017F00083E50E949E2981E00F900F900F900F903B
:10180000DF91CF910895CF93DF931F921F92CDB7B1
:10181000DEB789839A8340E0BE016F5F7F4F83E527
:101820000E949E290E9439090F900F90DF91CF915D
:101830000895CF93DF931F92CDB7DEB780E69DE288
:101840009F938F930E9459530E94EC060F900F9024
:10185000803E2FEF920744F0803291053CF497FFD1
:1018600006C08F71806203C080E201C08FE189836E
:1018700040E0BE016F5F7F4F89E00E94982F81E0BA
:101880000F90DF91CF910895CF93DF931F921F9216
:10189000CDB7DEB780E89DE29F938F930E945953A6
:1018A0000E94EC06992789839A830F900F900297E4
:1018B0004CF440E0BE016F5F7F4F85E00E94982F9F
:1018C00081E001C080E00F900F90DF91CF910895EB
:1018D0000F931F93CF93DF9300D01F92CDB7DEB746
:1018E00040E06FEA74E380E00E949E2908E814E378
:1018F000F801908181819B838C8340E0BE016D5F04
:101900007F4F80E50E949E29F8019281838199830F
:101910008A8340E0BE016F5F7F4F83E50E949E296E
:101920002496CDBFDEBFDF91CF911F910F91089517
:10193000FB01DC014D915D916D917C9180819181E4
:10194000A281B38184179507A607B70718F08FEF18
:101950009FEF089581E090E008958091C32F882340
:1019600059F08091C52F833011F484E003C0853095
:1019700019F486E08093C52F0895EF92FF920F939C
:101980001F93CF93DF93CDB7DEB76B97CDBFDEBF8D
:10199000F82EE62E682FCE0101960E942D06FF201C
:1019A00021F080913D208F8B01C01F8A188E198EE7
:1019B0001A8E1B8ECE0148960E9446160091BE2FAD
:1019C00010E0000F111F0154104D688D798D8A8D24
:1019D0009B8D28EE33E040E050E00E94CA4EF801B3
:1019E00020833183CE0101960E94AF2E8823A9F077
:1019F000E092C52F60E082E00E94101AFF2079F08B
:101A0000E12CF12C0CEE15E020E040E452E46FE014
:101A100070E081E00E94001702C01092C52F6B9603
:101A2000CDBFDEBFDF91CF911F910F91FF90EF905F
:101A30000895EF92FF920F931F93CF93DF93E62EBB
:101A4000E901142FF52E811104C083E290E00E9479
:101A50006D5380E1E81212C0FF921F93DF93CF9382
:101A60001F920F938FE89DE29F938F930E9459538B
:101A70008DB79EB708968DBF9EBF08C08BE99DE2CB
:101A80009F938F930E9459530F900F90DF91CF91A6
:101A90001F910F91FF90EF9008952F923F924F92D8
:101AA0005F926F927F928F929F92AF92BF92CF92EE
:101AB000DF92EF92FF920F931F93CF93DF93CDB7F7
:101AC000DEB7C055D109CDBFDEBF4A015B01722E22
:101AD00090913A3091113AC0803199F581E080932C
:101AE0003A30E9EFFFE2A9EEBFE289E390E38192A9
:101AF0009192A192B1927D928E179F07C1F780912A
:101B0000F92F9091FA2FA091FB2FB091FC2F809389
:101B1000E52F9093E62FA093E72FB093E82F8091C5
:101B2000E92F8093E42FE091BE2FF0E0EE0FFF1F2E
:101B3000E154F04D808191818093C12F9093C22F09
:101B400086C385EA9DE20E94735381C3E091BE2F54
:101B5000EE2319F0AFEFAE0F01C0A1E0F0E0EE0F01
:101B6000FF1FE154F04DB0E0AA0FBB1FA154B04DD0
:101B7000608171818D919C91681B790B6093C82F56
:101B80007093C92F40913930E42EF12C0091E52F4C
:101B90001091E62F2091E72F3091E82FF701EE0FFB
:101BA000FF1FEE0FFF1FCF018750904D6C01DC012E
:101BB0000D931D932D933C931397BFEF8B169B06AC
:101BC000AB06BB0609F444C089E0871508F042C0A3
:101BD00058EC569FC001579F900D112468EE73E09A
:101BE0000E94A24ECB01A0E0B0E018012901280E0E
:101BF000391E4A1E5B1E281439044A045B0440F453
:101C0000D6012D923D924D925C92139784E023C0B1
:101C100080179107A207B30788F4081B190B2A0B3A
:101C20003B0B80169106A206B30640F4D6010D9335
:101C30001D932D933C93139783E00DC0DF01A750B4
:101C4000B04D8D929D92AD92BC92139780E003C0EF
:101C500081E001C082E08093CA2FD701A751B04D27
:101C60007C92AFEFA40FAF7084E0A89FD001112445
:101C7000A750B04DE750F04D0D911D912D913C9125
:101C800080819181A281B381800F911FA21FB31F18
:101C9000B695A795979587958093DC2F9093DD2F28
:101CA000A093DE2FB093DF2FAEEFA40FAF7094E0C0
:101CB000A99FD0011124A750B04DEDEFE40FEF70B4
:101CC00084E0E89FF0011124E750F04D0D911D9143
:101CD0002D913C9180819181A281B381800F911FD0
:101CE000A21FB31FB695A795979587958093E02F70
:101CF0009093E12FA093E22FB093E32F1091B03493
:101D00008091B1348230D1F020F48130E1F4212F80
:101D100092C0833039F08430B1F450E080E090E03C
:101D2000DC01B7C1212FE12CF12C04E660E070E06A
:101D3000CB0188248A94982C540142C154E68FEF39
:101D40009FEFDC0114C1212FE12CF12C60E070E049
:101D5000CB012223E9F0A42FB0E0FD01EE0FFF1F1D
:101D6000EE0FFF1FE750F04D40805180628073807E
:101D7000640D751D861D971DFD01E751F04D3081E5
:101D8000E30EF11C411101C040E141502150E1CF6F
:101D9000212F30E040E050E00E94CA4E2093E52F12
:101DA0003093E62F4093E72F5093E82FB70180E060
:101DB00090E00E94094D6B017C01612F70E080E092
:101DC00090E00E940B4D9B01AC01C701B6010E943F
:101DD000614C0E946E4E3AC1822F90E00197642FB1
:101DE00070E0FC01EE0FFF1FEE0FFF1FA1E0B0E05F
:101DF000AC0FBD1FEA0FFB1FDB01AA0FBB1FAA0F11
:101E0000BB1FA750B04DCD90DD90ED90FC90C082EF
:101E1000D182E282F382E1E4F0E0EC0FFD1FE80FF3
:101E2000F91FDB01A751B04D3C913083411101C036
:101E300040E1415021502111CFCFE12EE694C12E37
:101E4000D12C28E93CE044E050E0B601CE010196F7
:101E50000E94944FF12C012F017010FF10C0F70168
:101E6000EE0FFF1FEE0FFF1F81E090E08C0F9D1F14
:101E7000E80FF91F80819181A281B38122C0C7013F
:101E80008150904C880F991F880F991FDE01A80F71
:101E9000B91FE1E0F0E0EC0FFD1FE80FF91F159608
:101EA0004D915D916D917C91189780819181A28176
:101EB000B381840F951FA61FB71FB695A795979559
:101EC00087958093E52F9093E62FA093E72FB0930B
:101ED000E82F28E93CE041E050E0B601CE018F5BFD
:101EE0009F4F0E94944F002341F0E1E4F0E0EC0F9B
:101EF000FD1FEE0DFF1D808119C0E0E4F0E0EC0F46
:101F0000FD1FEE0DFF1D2081E1E4F0E0EC0FFD1F51
:101F1000EE0DFF1D808190E0820F911D092E000CB7
:101F2000AA0BBB0BB695A795979587958093E42F41
:101F3000BCC0642F70E09B01220F331F220F331FA0
:101F40002750304DF901C080D180E280F380C8165F
:101F5000D906EA06FB0630F4FB01E751F04D50814B
:101F6000D701C601411101C040E14150115011118A
:101F7000E0CF91C0A42FB0E0FD01EE0FFF1FEE0FE8
:101F8000FF1FE750F04D40805180628073804814FD
:101F900059046A047B0410F453014201FD01E75126
:101FA000F04D3081301708F4032F640D751D861D28
:101FB000971DE30EF11C411101C040E14150215039
:101FC0002111D8CF212F30E040E050E00E94CA4ECE
:101FD000CA01B9010E94094D2B013C01C501B401A0
:101FE0000E94094D20E030E0A9010E94014E9B01B2
:101FF000AC01C301B2010E94D94B0E94DA4C60933C
:10200000E52F7093E62F8093E72F9093E82F612FB1
:1020100070E0C7010E94A24E7727072E000C880BA4
:10202000990B0E940B4D6B017C01602F70E080E0EA
:1020300090E00E940B4D20E030E0A9010E94014E8B
:102040009B01AC01C701B6010E94D94B0E94DA4C3A
:102050006093E42F2AC0642F70E09B01220F331F8E
:10206000220F331F2750304DF901C080D180E2800C
:10207000F3808C159D05AE05BF0530F4FB01E751DB
:10208000F04D5081D701C601411101C040E14150DE
:1020900011501111E0CF8093E52F9093E62FA0937C
:1020A000E72FB093E82F5093E42FE090C82FF090E3
:1020B000C92FE114F10409F45BC0009139300370B9
:1020C000F4E00F9F800111240453104D8091DC2F08
:1020D0009091DD2FA091DE2FB091DF2F8090E02F27
:1020E0009090E12FA090E22FB090E32FBC01CD01A2
:1020F000681979098A099B090E940B4D4B015C0103
:10210000B70180E090E00E94094D9B01AC01C50140
:10211000B4010E94614C20E030E040E152E40E94B2
:10212000014ED8016D937D938D939C9313970CEC86
:102130001FE28CEDC82E8FE2D82E60E070E0CB015C
:10214000F80121913191419151918F010E94D94B18
:10215000C016D106A9F720E030E040E85EE30E9417
:10216000014E0E946E4E0E94D34C6093CB2F02C052
:102170001092CB2F8091CB2F8F3F24F0823024F010
:102180009CE403C091E401C090E2FF92EF922091A1
:10219000E42F1F922F931F929F93282F082E000C3D
:1021A000330B3F938F938091E82F8F938091E72F8C
:1021B0008F938091E62F8F938091E52F8F938CEAF8
:1021C0009DE29F938F930E945953CDBFDEBF8091B4
:1021D000CA2F882341F084EE9DE29F938F930E9443
:1021E00059530F900F908091CA2F823071F018F4DC
:1021F000813041F004C0833059F0843061F080E2D6
:1022000090E00BC084E590E008C084E490E005C055
:1022100083E590E002C08CE490E00E946D538AE078
:1022200090E00E946D53809139308F5F803119F0BA
:102230008093393002C0109239308091BE2F8F5F69
:10224000823019F08093BE2F02C01092BE2FC05B67
:10225000DF4FCDBFDEBFDF91CF911F910F91FF9078
:10226000EF90DF90CF90BF90AF909F908F907F9036
:102270006F905F904F903F902F900895EF92FF9254
:102280000F931F930E944D0DE12CF12C0DEA1CE0E1
:1022900020E048EF54E261E070E082E00E94001725
:1022A00061E082E01F910F91FF90EF900C94101A63
:1022B000EF92FF920F931F93CF93DF93CDB7DEB7CB
:1022C0006797CDBFDEBF182F682FCE0101960E9401
:1022D0002D06112321F080913D208F8B01C01F8A94
:1022E000109239301092BE2F10923A308091C32F45
:1022F000882331F0112311F086E022C084E020C051
:10230000CE0101960E94AF2E8823E1F060E082E0CA
:102310000E94101A112399F082E08093C52F81E06A
:102320000E941218E12CF12C0CEE15E020E040E4A4
:1023300052E46FE070E081E00E94001703C081E08A
:102340008093C52F6796CDBFDEBFDF91CF911F91E0
:102350000F91FF90EF9008950F931F93CF93DF930A
:10236000CDB7DEB76797CDBFDEBF8C0160E0CE0191
:1023700001960E942D061F8A00939634109397347D
:10238000109239301092BE2F10923A30CE01019641
:102390000E94AF2E882339F060E082E00E94101A7C
:1023A00081E08093C52F6796CDBFDEBFDF91CF91CF
:1023B0001F910F910895863121F178F48231F1F067
:1023C00028F4813169F58CEE9DE22CC08431E1F076
:1023D000853131F586E29EE225C08931C1F038F4BD
:1023E0008731C1F08831E1F489E69EE21BC0813E6D
:1023F000A1F0893EA9F48DE09FE214C082E19EE243
:1024000011C089E49EE20EC08EE89EE20BC089EA0C
:102410009EE208C082EC9EE205C08DED9EE202C005
:102420008DE19FE20C9473534F925F926F927F9273
:102430008F929F92AF92BF92CF92DF92EF92FF92D4
:102440000F931F93CF93DF93D82FC62F122FF32E06
:10245000542E452E603109F089C084E39FE29F939A
:102460008F930E9459531F920F934F925F92FF9246
:102470001F938DE39FE29F938F930E9459538D2F5B
:102480000E942C078AE090E00E946D538DB79EB7A2
:102490000A968DBF9EBFE11022C086E49FE20E9493
:1024A00073538DE49FE20E947353E11047C04F9233
:1024B0005F92FF921F9388E79FE29F938F930E9402
:1024C00059531F920F9384E99FE29F938F930E9429
:1024D00059538DB79EB70A968DBF9EBF82C0E60145
:1024E0006E2C712CC12CD12C89E5882E8FE2982E70
:1024F00096E6A92E9FE2B92EDF92CF929F928F92FD
:102500000E9459538C811F928F938B818F938A8164
:102510008F9389818F9388818F93BF92AF920E940E
:1025200059539FEFC91AD90A25968DB79EB70C96B5
:102530008DBF9EBFC614D704F9F6AFCF4F925F92FE
:10254000FF921F938FE69FE29F938F930E945953B0
:102550001F920F938BE89FE29F938F930E94595392
:102560008DB79EB70A968DBF9EBF3BC082EA9FE2A1
:102570009F938F930E9459538AEA9FE29F938F9370
:102580000E9459538D2F0E942C071F92CF9387EBE7
:102590009FE29F938F930E94595386E49FE20E948B
:1025A00073531F92CF9381EB9FE29F938F930E946F
:1025B00059538DB79EB70C968DBF9EBF8C2FDF9160
:1025C000CF911F910F91FF90EF90DF90CF90BF9030
:1025D000AF909F908F907F906F905F904F900C94F2
:1025E000DB11DF91CF911F910F91FF90EF90DF9062
:1025F000CF90BF90AF909F908F907F906F905F90A3
:102600004F900895CF93DF931F92CDB7DEB78A30F6
:1026100061F48DE0898341E0BE016F5F7F4F80E010
:102620000E9486148823B9F38AE0898341E0BE01C1
:102630006F5F7F4F80E00E9486148823B9F380E0AB
:1026400090E00F90DF91CF910895CF93DF931F9289
:10265000CDB7DEB741E0BE016F5F7F4F80E00E94E3
:102660008F148823B9F389818D3011F48AE089832E
:10267000898190E00F90DF91CF910895CF93DF9300
:102680001F92CDB7DEB741E0BE016F5F7F4F80E0A4
:102690000E948F14813019F4898190E002C08FEF7D
:1026A0009FEF0F90DF91CF9108950F931F93CF93DA
:1026B000DF938C01EB011C161D065CF44C2FB80156
:1026C00080E00E94861490E0C81BD90B080F191FE8
:1026D000F2CFDF91CF911F910F9108950F931F9328
:1026E0008B019C01DC01CB019E5EA548BF4FBC0164
:1026F000CD0142E0660F771F881F991F4A95D1F7D9
:10270000A9019801E3E0220F331F441F551FEA95EA
:10271000D1F70E94CA4E21503109E0E6F6E088E088
:10272000818384E0828382898861828BE0EAF9E098
:10273000378326838CE1848383E085838CE38383E2
:102740001F910F910895CF93DF93482F2091A309F4
:10275000237F2093A309E0919E3530919F353E174A
:1027600010F027EC01C02FEF2E0F231B822F6217D2
:1027700008F4862FA42FB92F282F222391F09091AF
:102780009F353D91C92FD0E0C453DB4C3883973C33
:1027900019F410929F3503C09F5F90939F3521508D
:1027A000ECCF9091A235911109C0F0E0E453FB4CBD
:1027B00090819093A00991E09093A2359091A30904
:1027C0009C609093A309DF91CF910895DC018091E3
:1027D000A3358823A9F19091A3099F7C9093A30925
:1027E0008A3058F08091A1358093A0358AE080939B
:1027F000A3356A3028F06AE003C0861708F4682F12
:10280000262F2223B9F0E091A035F0E0EC56FA4CE7
:1028100080818D939091A0359F5F9093A0353091EA
:10282000A33531503093A33521509A3051F710928F
:10283000A035E7CF8091A30980638093A309862FF9
:1028400008951F920F920FB60F9211240BB60F929C
:102850008F939F93EF93FF938091A1359091A33530
:102860009F5F9093A3359091A009E82FF0E0EC567C
:10287000FA4C9083893019F41092A13503C08F5F10
:102880008093A135FF91EF919F918F910F900BBE97
:102890000F900FBE0F901F9018951F920F920FB6BA
:1028A0000F9211240BB60F928F93EF93FF938091A9
:1028B0009E35873C19F410929E3503C08F5F80933C
:1028C0009E35E0919E3580919F35E81739F0F0E014
:1028D000E453FB4C80818093A00902C01092A23582
:1028E000FF91EF918F910F900BBE0F900FBE0F9045
:1028F0001F901895811108C060E076E980E090E0B3
:102900000E946E1380E0089585E808959B0181116F
:1029100004C0642FC9010C94A31380E008959B01A7
:10292000811104C0642FC9010C94E61380E008955E
:1029300080933B3090933C30E0E4F6E081E0828B82
:1029400094E09287848708951F920F920FB60F929A
:1029500011240BB60F922F933F934F935F936F9376
:102960007F938F939F93AF93BF93EF93FF93E091E8
:102970003B30F0913C301995FF91EF91BF91AF91B1
:102980009F918F917F916F915F914F913F912F9187
:102990000F900BBE0F900FBE0F901F9018952091B7
:1029A000CF0127FDFCCF1092C2019093C10180930B
:1029B000C00186E08093CA01EBECF1E021E030E059
:1029C00088ED90E084BF20838091C40108950E9427
:1029D00031190E9448190E948E1A0E9420160E94E6
:1029E00021190E942B1921E030E088ED90E084BF8E
:1029F0002093800080E008950C94C516EF92FF921A
:102A00000F931F93CF93DF93FB01BA01813051F4F1
:102A1000A9018E2FDF91CF911F910F91FF90EF9021
:102A20000C947C19811119C0CA018E0F9F1F81302F
:102A30009041A8F4E9018901060F171F7F01E21AEE
:102A4000F30AC017D10739F0CE018E0D9F1D0E94E9
:102A5000CF148993F6CF80E003C088EE01C085E8EB
:102A6000DF91CF911F910F91FF90EF9008955F92AA
:102A70006F927F928F929F92AF92BF92CF92DF928E
:102A8000EF92FF920F931F93CF93DF93EC018C0192
:102A9000060F171F013020E1120708F03FC07A012E
:102AA00083E3782E95E3692E28EDC22ED12C88245D
:102AB0008394912C4BECA42EBB24B39456E3552E57
:102AC000C017D10749F1CE010E94CF14F7019191AF
:102AD0007F018917F9F08C2F2091CF0127FDFCCFC2
:102AE0002091CF0121FF06C05092CA019601F50145
:102AF00024BF80827092CA018093C0011092C101EC
:102B00001092C2019093C4016092CA019601F5012E
:102B100024BF80822196D4CF80E001C085E8DF9178
:102B2000CF911F910F91FF90EF90DF90CF90BF90CA
:102B3000AF909F908F907F906F905F9008951092CC
:102B400024068FEF80932106CFEF8FEF9FEF0E9437
:102B50005216C0932706F9CF0F931F938091A43587
:102B60009091A53540912008509121082091A435DD
:102B70003091A5358217930789F7A0E0B0E0DC011A
:102B80009927882760E070E08A019B01082B192BA8
:102B90002A2B3B2BC901B8011F910F9108950F9368
:102BA0001F93CF93CFB7F894E0913F30EF3F09F4F4
:102BB00042C029E0E29FF0011124EA55FA4C8081DD
:102BC0009181A281B3812091A4353091A5352A1736
:102BD0003B0769F4809328089093290880910C089A
:102BE000806180930C0880910708836003C0809106
:102BF00007088C7F809307080E94AC15E0913F3056
:102C000029E0E29FF0011124EA55FA4C008111817C
:102C100022813381DC01CB01801B910BA20BB30B12
:102C20000196A11DB11D8F3F9F4FAF4FBF4718F4B5
:102C300081E080934030CFBFCF911F910F910895D5
:102C400010924130109240301092A4351092A53568
:102C50008FEF80933F3080933E3080933D30E6EAA3
:102C6000F5E3808714821582818B15861686828F04
:102C7000168A178A0C946A19811102C088E001C073
:102C80008AE080930008809340080895CF93DF93F3
:102C9000EC010E94AC15688379838A839B83DF9162
:102CA000CF9108954FB7F8948630910518F120918F
:102CB000200830912108820F931F20912008309125
:102CC00021082817390740F4209120083091210865
:102CD00028173907C8F30EC0209120083091210829
:102CE00082179307C8F320912008309121082817F4
:102CF0003907C8F34FBF089529E0829FC00111240E
:102D0000FC01EA55FA4C81E024813581232B09F43A
:102D100080E00895809140308823B1F110924030D6
:102D200090914130992381F180913E30A0913D30C6
:102D3000E0913F308F3F39F4AF3F29F4E0933D30CD
:102D4000E0933E300AC089E0A89FD0011124AA5523
:102D5000BA4C1896EC93E0933D3089E08E9FF001D9
:102D60001124EA55FA4C208520933F30E0913D3004
:102D70008E9FF0011124EA55FA4C8FEF8087915015
:102D8000909341300C94CF150895CF93DF93CFB734
:102D9000F8940E948A16CFBFC9E0DFEF80913E30E1
:102DA0008F3F59F18FB7F894A0913E30CA9FD00160
:102DB0001124AA55BA4C18969C9118971496ED9127
:102DC000FC91159716962D913C9117971896DC93C8
:102DD000189714961D921C92159716961D921C9288
:102DE000179790933E309F3F11F490933D308FBFE3
:102DF0003097A1F2C9011995D1CFDF91CF910895F4
:102E00002F923F924F925F926F927F928F929F92FA
:102E1000AF92BF92CF92DF92EF92FF920F931F93E8
:102E2000CF93DF93CDB7DEB72797CDBFDEBFD82EC8
:102E30004A015B01C22E82E0482E4D1408F4D5C031
:102E40000115110509F4D5C02D2C312C29E0D29E95
:102E5000F0011124EA55FA4C84819581892B09F0FF
:102E6000C6C00E94AC15CC2021F031E0C316B1F0F1
:102E7000C0C02401350140E8441A510861087108B6
:102E800050E845165FEF550665065FE7750608F0E2
:102E9000B2C0860E971EA81EB91E15C024013501AA
:102EA000B0E84B1A510861087108A3019201261B72
:102EB000370B480B590BDA01C90180389F4FAF4FD0
:102EC000BF4708F098C0CFB6F8940E948A16309198
:102ED0003F30809141303F3F21F0932F232F1F82BD
:102EE00012C0D0923F3099E0929DF001939DF00D79
:102EF0001124EA55FA4C308791E05EC02F3F39F437
:102F00005F815F5F5F836F816813F8CF44C0A9E082
:102F1000A29FF0011124EA55FA4C4081518162814F
:102F2000738124013501441A550A660A770A4FEF66
:102F30004416540664064FE7740618F4922F208551
:102F4000DFCFA29DF001A39DF00D1124EA55FA4CAC
:102F500020878F5F32130DC0D0923F3080829182E4
:102F6000A282B38204831583E682F7828093413084
:102F700037C0A99FD0011124AA55BA4C1896DC92EB
:102F800080829182A282B38204831583E682F782D3
:102F90008093413027C029E0299FF0011124EA5590
:102FA000FA4CD086229DF001239DF00D1124EA55A4
:102FB000FA4C9FEF908790E029E0229DF001239D3D
:102FC000F00D1124EA55FA4C80829182A282B382DC
:102FD00004831583E682F7828F5F809341309111DD
:102FE0000E94CF15CFBE80E007C08AE805C088E800
:102FF00003C088EE01C08BE82796CDBFDEBFDF910E
:10300000CF911F910F91FF90EF90DF90CF90BF90E5
:10301000AF909F908F907F906F905F904F903F9078
:103020002F900895EF92FF921F93CF93DF938330F9
:1030300008F04CC0C82F1FB7F8940E948A16D09190
:103040004130DD2309F444C020913F309D2FE22F11
:10305000822F49E0C8132FC0EC2EF12C89E0C21357
:103060000DC08E9DF0018F9DF00D1124EA55FA4C94
:10307000808580933F300E94CF150FC08E9DD00178
:103080008F9DB00D1124AA55BA4C18969C918E9F15
:10309000F0011124EA55FA4C908789E08E9DF001E9
:1030A0008F9DF00D1124EA55FA4C8FEF8087D15097
:1030B000D093413053C0489FF0011124EA55FA4C97
:1030C00030859150E82F21F0832FC4CF8AE850C07B
:1030D00090913E30292F892F39E08F3FB9F18C1321
:1030E0002DC04C2F50E080913D30C91312C0C81341
:1030F00004C08FEF80933D3009C089E0849FF001C8
:10310000859FF00D1124EA55FA4C808580933E305E
:1031100025C0E9E0E49FD001E59FB00D1124AA5538
:10312000BA4C18969C91E29FF0011124EA55FA4C92
:103130009087C81313C020933D3010C0389FF00112
:103140001124EA55FA4C282F8085C7CF80E01FBF95
:10315000882311F080E00CC089E80AC089E0C89F8C
:10316000F0011124EA55FA4C1482158281E0EFCF68
:10317000DF91CF911F91FF90EF9008951F920F92D2
:103180000FB60F9211240BB60F922F933F934F93CC
:103190005F936F937F938F939F93AF93BF93EF93BF
:1031A000FF938091A4359091A53501968093A43525
:1031B0009093A5350E94CF15FF91EF91BF91AF91EC
:1031C0009F918F917F916F915F914F913F912F913F
:1031D0000F900BBE0F900FBE0F901F9018951F926F
:1031E0000F920FB60F9211248F9380914130882354
:1031F00019F081E0809340308F910F900FBE0F90B7
:103200001F9018950F931F934091A4355091A535A9
:10321000009168081091690860E070E0BA015527D4
:10322000442720E030E0402B512B622B732BFC0114
:1032300040835183628373831F910F91089581E0CE
:10324000089585E88093800181E68093810188E676
:10325000809382010895E0EAF0E0828184608283B5
:10326000089582E0809350008091510081FFFCCF4F
:1032700021E030E088ED90E084BF2093400082E0C0
:103280008093560080916000816080936000089573
:10329000E0E4F6E0808180618083808180688083C3
:1032A000808181608083808180628083808188606A
:1032B000808380818F7B8083E0E6F6E080ED8183F0
:1032C00080E2828380E1858380818E7F808381E0BC
:1032D000808B089588E0809300088093400880EFF9
:1032E00080930C0880E380934C0883E08093060869
:1032F00089E28093430808950F931F93CF93DF9340
:10330000CDB7DEB7C054D109CDBFDEBFFE013196C7
:1033100090E0DF0131E070E103E010914906209177
:1033200049062C7F20934906309346067093460643
:10333000000000000000000000000000000000008D
:10334000000000000000000000000000000000007D
:10335000000000000000000000000000000000006D
:10336000000000000000000000000000000000005D
:103370000093C3082091C20827FFFCCF9093C30895
:103380002091C20827FFFCCF1092C3082091C208E9
:1033900027FFFCCF2091C308709345063093450664
:1033A0001093490621939F5F903409F0B6CF20E037
:1033B00030E0FD018E010F5B1F4F91912927022EF6
:1033C0002295207F2025032E322F22952F70022652
:1033D000269532272327220F220F220F2025E017C0
:1033E000F10759F7232B61F4A80FB11DFA018E2FB5
:1033F000841B861718F48D918193F9CF80E001C06A
:1034000085E8C05CDF4FCDBFDEBFDF91CF911F915C
:103410000F910895E0E2F6E087E0818386830895C6
:10342000813021F0823021F482E003C081E001C0CC
:1034300080E0662369F06130B1F421E030E0A90159
:1034400002C0440F551F8A95E2F74093260608955F
:1034500021E030E0A90102C0440F551F8A95E2F730
:1034600040932506089521E030E0A90102C0440FF1
:10347000551F8A95E2F7409327060895E0E2F6E0AB
:1034800088E0828388E1838B80E49FE10197F1F7F4
:1034900008958091280683FB882780F908952FB727
:1034A000F89498E09093B000E0E2F6E08BE1838B33
:1034B00081858C7F826081879287E0EAF0E082815B
:1034C0008260828378942FBF08951F920F920FB667
:1034D0000F9211240BB60F928F93EF93FF93E0E2BC
:1034E000F6E08285877F8287E8E4F0E080818E7F46
:1034F0008083FF91EF918F910F900BBE0F900FBEC5
:103500000F901F9018950E944F1AE8E4F0E0808118
:10351000807F85608083789488950895E0ECF8E05A
:1035200080E5808380818168808380E18093450687
:10353000089520914906909149069C7F90934906F1
:10354000806C90E1909346068093C3088091C208F6
:1035500087FFFCCF6093C3088091C20887FFFCCF30
:1035600080E18093450620934906089520914906FD
:10357000909149069C7F90934906806890E19093D2
:1035800046068093C3088091C20887FFFCCF109243
:10359000C3088091C20887FFFCCF8091C30890E1E7
:1035A0009093450620934906089520E1209346060E
:1035B00020E22093C3082091C20827FFFCCF10927D
:1035C000C3086130A1F0262FFC013091C20837FFFB
:1035D000FCCF3091C3081092C308319321502130A1
:1035E000A1F7625070E06F5F7F4F860F971F2091A9
:1035F000C20827FFFCCF2091C308FC01208380E193
:1036000080934506089520E12093460620E6209306
:10361000C308FC012191CF0161503091C20837FFEE
:10362000FCCF2093C3086111F4CF8091C20887FFBB
:10363000FCCF80E1809345060895CF93DF93C62F9A
:10364000D42F0E94B61A8C2390E002C095958795DE
:10365000DA95E2F7DF91CF9108950F931F93CF93FF
:10366000DF93182FD62F042FC22F0E94B61A2C2FAB
:1036700001C0220F0A95EAF728272D23682F622719
:10368000812FDF91CF911F910F910C94991A209166
:103690004906909149069C7F9093490690E190934A
:1036A000460690E49093C3089091C20897FFFCCF20
:1036B0008093C3088091C20887FFFCCFFB018191F2
:1036C0008093C3088091C20887FFFCCF4150B9F7AF
:1036D00080E180934506209349060895000000008C
:1036E00000000000000000000000000000000000DA
:1036F00000000000000000000000000020914906CA
:10370000909149069C7F9093490690E190934606DC
:103710001092C3089091C20897FFFCCF8093C30812
:103720008091C20887FFFCCFFB011092C3088091F3
:10373000C20887FFFCCF8091C30881934150A9F74D
:1037400080E1809345062093490608950F931F93C7
:10375000CF93DF9382E490E30E94421C03E610E3E0
:10376000C7E4D0E308831983BE0182E490E30E949A
:10377000491C0A561F4F249680E3C336D80791F799
:10378000DF91CF911F910F91089560E070E082E486
:1037900090E30C94641C009729F0BC0182E490E350
:1037A0000C94491C08959F92AF92BF92CF92DF92E2
:1037B000EF92FF920F931F93CF93DF939FB6F894EE
:1037C000DC0114962C91211103C0C0E0D0E04CC064
:1037D0006A015B018C01FC01C081D181452BA1F004
:1037E0007E01209791F3D60112966D917C911397EB
:1037F000ED91FC91888199811995811108C07E0114
:103800000A80DB81C02DEDCF209751F4DECFAB28AD
:1038100059F5F80180819181C817D90751F403C087
:10382000672B11F57E018A819B81D8018D939C9332
:1038300005C08A819B81F70182839383D801129608
:103840008D919C911397C817D90721F41296ED9288
:10385000FC921397F8018481815084838081918147
:10386000892B11F4128213829FBECE01DF91CF917A
:103870001F910F91FF90EF90DF90CF90BF90AF908E
:103880009F900895FC01108211821282138214828B
:103890000895FC019FB7F8948481811103C060836F
:1038A000718306C0A281B38112966D937C931397A6
:1038B00062837383DB0112961D921C92139784819D
:1038C0008F5F84839FBF0895AB0160E070E00C942C
:1038D000D31BAB0161E070E00C94D31BCF93DF935B
:1038E000EC018C81882361F060E070E0CE010E94E1
:1038F000641C009711F41C8203C00E94CB1BF1CF03
:10390000DF91CF9108950F931F93CF93DF93CDB79E
:10391000DEB72897CDBFDEBF40E06FE181E00E94B7
:103920001D1B883009F04AC08FE00E94B61A8EE055
:103930000E94B61A182F61E08EE00E94991A009139
:103940004906809149068C7F8093490669E082E0B0
:103950000E94991ACE0105960E944616809148064B
:1039600082FD20C0CE0101960E94461689819A816F
:10397000AB81BC814D815E816F817885841B950B05
:10398000A60BB70B8B3F9105A105B10538F38AE172
:103990000E94B61A682F80FF02C06E7F01C061606E
:1039A0008AE1D6CF8FE00E94B61A81E080934C0660
:1039B00000934906612F8EE00E94991A2896CDBF88
:1039C000DEBFDF91CF911F910F910895CF93C82F44
:1039D0002091E6352F30A1F51092EA3581EE92E282
:1039E0000E94981481E080934C0680914906836080
:1039F000809349068FB7F894789498E090934606A0
:103A00009091EA359923E1F38FBF8FE00E94B61AB7
:103A10008BEC92E20E94981468E08EE00E94991A62
:103A200021E042E064E08DE00E942D1B88E080935D
:103A3000E635C83009F4E6C0C33009F0E5C0E2C09D
:103A400090E0FC013397E731F10508F0D1C08827F9
:103A5000E25CFE4F8F4F0C94EC4E63E082E00E94DC
:103A6000991A20E042E064E08DE00E942D1B8FE077
:103A70000E94B61A20E140E06FEF8EE00E942D1BFD
:103A800020E140E06FEF8EE00E942D1B8FE08093DD
:103A9000E63500000000000000000000000000000B
:103AA0000000000000000000000000000000000016
:103AB0000000000000000000000000000000000006
:103AC00000000000000000000000000000000000F6
:103AD000000088E08093450683E290E00E94521641
:103AE0008091E6359EC08091E635883009F480C02B
:103AF00068E05BC0283009F47BC063E056C0809169
:103B0000E6358830C1F020F4863009F071C005C078
:103B1000863119F0893109F06BC069E046C08091A7
:103B2000E635883041F0893009F462C064E082E013
:103B30000E94991A5DC00E94831C5AC08091E6358C
:103B4000893061F030F4883009F052C00E94831C43
:103B500005C0863119F0893109F04AC066E025C0F8
:103B60008091E635883059F020F4863009F040C065
:103B700008C0893031F0893109F03AC002C00E9492
:103B8000831C66E112C08091E635883059F020F43C
:103B9000863009F02DC008C0893031F0863109F037
:103BA00027C002C00E94831C69E182E00E94991A2A
:103BB0000000000000000000000000000000000005
:103BC00000000000000000000000000000000000F5
:103BD00000000000000000000000000000000000E5
:103BE00000000000000000000000000000000000D5
:103BF00040E06FE181E00E941D1B8093E6358F312C
:103C0000B9F30FC088E00DC08C2F90E0FC01349711
:103C1000E631F10568F78827EB5AFE4F8F4F0C9479
:103C2000EC4ECF9108958091C1358823E1F08091C9
:103C3000EB35811118C080917D3490917E34892BB1
:103C400039F486E90E94C51B80937D3490937E34BD
:103C500080917D3490917E34892B29F01092C1356A
:103C600086E10E94E61C8091C635882351F060E011
:103C700070E082EC95E30E94641C009711F00E94B2
:103C8000951E8091EB35823011F40C94CC1E089572
:103C9000EF92FF920F931F93CF93DF931F92CDB7B5
:103CA000DEB7E0917D34F0917E34309731F461E0FD
:103CB000CE0101960E94D51A30C0E080F18041E02B
:103CC000BE016F5F7F4F80E00E946E1B698167FDC0
:103CD00024C06D5F06E910E0061B11090E0D1F1DC3
:103CE000C8010E94D51AF7010783108760917D34BF
:103CF00070917E3482EC95E30E94491C86E90E9413
:103D0000C51B80937D3490937E34892B31F489E0F8
:103D10000E94E61C81E08093C1350F90DF91CF9126
:103D20001F910F91FF90EF9008950F931F93CF93E2
:103D3000DF938C01FC01C081D181AF81B8858C916A
:103D40008093E735E82FF0E03196EA0FFB1F2081E2
:103D50009181903220F4911103C091E001C09FE164
:103D600022952695269523708FEF289F9001112488
:103D7000929FA001939F500D1124CA016DE570E040
:103D80000E94A24E608309831A83CE01DF91CF91F6
:103D90001F910F910C9444301092EB35E0917F34D9
:103DA000E83028F4F0E0E259FF4D808101C085E859
:103DB0006091C7357091C8350C942C34CF93DF9344
:103DC000EC01662319F02091E53501C020E044E0C4
:103DD00060EF8CE20E942D1BC230D10510F427E069
:103DE00002C02091DD3541E06EE08CE20E942D1B87
:103DF00089E10E94E61C8931D9F7809149068C7FC0
:103E000080934906219759F48091E735833118F062
:103E100087E592E002C087E990E00E94521688E0B0
:103E200080934506000000000000809346068091C4
:103E3000E8359091E935FC01608161500E94031BD7
:103E400081E08093EB358091490683608093490639
:103E5000DF91CF9108959B015091EB35511113C023
:103E60008093C7359093C835FC01878190858093F6
:103E7000E8359093E935892B41F0642FC9010E9400
:103E8000DE1E80E0089586E8089588EE0895882370
:103E900011F087E005C045E060EE82E00E941D1B46
:103EA00080937F3482E08093EB3580917D349091D4
:103EB0007E34892B39F489E00E94E61C81E08093EE
:103EC000C135089586E10C94E61C982F85FD02C04B
:103ED0009F7303C091959F719195E2EAF5E080E0B0
:103EE0002491921724F029173CF4815008958F5F94
:103EF00031968031A9F780E008950F931F93CF93F7
:103F00006091D73582E20E94991A6091D83583E298
:103F10000E94991A09EC15E3C4E2F80161918F013E
:103F20008C2F0E94991ACF5FCC32B9F76091D535AA
:103F300080E20E94991A6091D63581E20E94991A16
:103F40002091DB3545E060E688E00E942D1B209142
:103F5000DE3540E06FE08FE20E942D1B2091DF35BF
:103F600043E068E08EE20E942D1B2091E43544E09E
:103F700060EF8FE20E942D1B2091DC3540E06FE165
:103F800088E00E942D1B8091E0350E94651F282F3C
:103F900040E06FE085E0CF911F910F910C942D1BB5
:103FA000982F85FD02C09F7303C091959F719195D5
:103FB000E2EAF5E0249129172CF0E1EBF5E02491F9
:103FC00092176CF48491803E3CF080323CF487FF81
:103FD00006C08F71806203C080E201C08FE18068FB
:103FE0000895CF93DF93C9ECD5E384E08C8B83E015
:103FF0008D8B2FEF3FEF2E873F872C873D879BE0F0
:104000009B8B40E058EF6FEF77E0488759876A87CE
:104010007B87188E2AE031E0288B398B9AE0998FC4
:1040200092E09A8F95E09B8F8C8F84E80E94D01F3E
:104030008F8B81E08A8B1E8ADF91CF9108950F9339
:104040001F93CF93DF93EB018E3431F0893541F428
:1040500088818093E535CAC088818093DD35C6C0EC
:104060002091E6352F3009F4C3C08B3009F4B6C077
:1040700078F4823009F493C020F4882309F456C000
:10408000B9C0833009F499C0843009F479C0B2C052
:104090008335E1F198F48F3499F1803509F0AAC0A5
:1040A00088819981682F8093D7359093D83582E2A3
:1040B0000E94991A6091D83583E235C0873509F49A
:1040C00067C0803F09F096C088818093C935898197
:1040D0008093CA358A818093CB358B818093CC3590
:1040E0008C818093CD358D818093CE358E81809368
:1040F000CF358F818093D03509EC15E3C4E264C0DD
:1041000028812093DE3540E06FE047C088819981A7
:10411000682F8093D5359093D63580E20E94991A06
:104120006091D63581E20E94991A60C08091EB358A
:10413000811162C080E098EFAFEFB7E0088004C063
:10414000B695A795979587950A94D2F780FF56C0A4
:10415000283039F088E00E94E61C8830D9F716E153
:1041600001C018E028812093DC3540E06FE188E051
:104170000E942D1B1830D1F186E10E94E61C36C04A
:104180008091EB35811138C08881811137C02EC0F4
:1041900028812093E43544E060EF8FE225C08881D8
:1041A0008093E0350E94D01F8093E0350E94651F08
:1041B000282F40E06FE085E017C028812093DB3591
:1041C00045E060E688E010C0F80161918F018C2F16
:1041D0000E94991ACF5FCC32B9F708C0288120938A
:1041E000DF3543E068E08EE20E942D1B80E007C0CF
:1041F00081E805C084EF03C086E801C088EEDF9146
:10420000CF911F910F9108951F93CF93DF931F922A
:10421000CDB7DEB79E012F5F3F4F41E050E065E133
:1042200070E081E00E94FE1488E08093460682EDF3
:1042300090E00E94521611E01093460681E090E053
:104240000E945216109345061BE084E690E00E94FF
:10425000521640E06FE181E00E941D1B115069F091
:10426000883099F78093E6352981222341F040E098
:104270006FE082E10E942D1B02C085E801C080E052
:104280000F90DF91CF911F910895CF9320E043E0ED
:1042900068E083E00E942D1B21E040E067E083E0BE
:1042A0000E942D1B0E94A651C92F682F8DE20E94EB
:1042B000991A2C2F40E067E08EE20E942D1B21E02E
:1042C00046E060EC8EE20E942D1B21E045E060E2BA
:1042D0008EE20E942D1B21E047E060E88CE00E9406
:1042E0002D1B68E08EE00E94991A6FEF86E10E9414
:1042F000991A20E040E063E08DE00E942D1B23E04E
:1043000040E06FE08AE00E942D1B21E043E068E07E
:104310008DE00E942D1B21E042E064E08DE0CF9112
:104320000C942D1BFF920F931F93CF93DF9386E185
:104330000E94B61A082F61EC86E10E94991AF0904B
:104340004906809149068C7F8093490686E00E9449
:10435000E61C8630D9F720E047E060E885E10E945E
:104360002D1B18E0C0E0D0E045E060E686E00E944A
:104370001D1BCC0FDD1FCC0FDD1FC82B0000000064
:10438000000000000000000000000000000000002D
:10439000000000000000000000000000000000001D
:1043A000000000000000000000000000000000000D
:1043B000000000000000000000000000115009F0A3
:1043C000D3CF83E00E94E61C8FE00E94B61A81E002
:1043D00080934C06F0924906CE010E94AA51602FAC
:1043E00086E1DF91CF911F910F91FF900C94991A64
:1043F000CF93DF93D82F0E940421C82F811129C0A9
:104400000E9492210E944521D1110E94F11F0E9419
:104410007D1F1092EB351092C1358091C6358823EF
:1044200059F060E070E082EC95E30E94641C009714
:10443000A1F30E94CB1BF1CF8BEC92E20E94981467
:1044400081E080934C068091490683608093490601
:1044500001C0C5E88C2FDF91CF910895EF92FF92B4
:104460000F931F93CF930E94E71481118CC0C1E07A
:10447000C093450688E0809346068AE491E00E9456
:104480005216C093460681E090E00E945216C093F7
:1044900045061AE084E690E00E9452168CE10E94E4
:1044A000B61AC82F8B3019F01150A1F76CC068E014
:1044B00082E00E94991A84E690E00E94521640E041
:1044C0006FE181E00E941D1BC15009F45CC088307F
:1044D00091F78093E63529EC35E348E050E060E061
:1044E00070E081E00E94FE140E940421C82F811117
:1044F0004AC00E9492210E9445210E94F11F0E9401
:104500007D1F1092EB351092C13581EDE82E85E3C9
:10451000F82E2091C9353091CA354091CB35509154
:10452000CC356091CD357091CE358091CF3590915D
:10453000D035AFEF0E941D4FADEF0E94324F61F0BA
:1045400058F009EC15E30E94A651F80181938F0100
:10455000EE16FF06C1F7DDCF8BEC92E20E949814B5
:10456000809149068360809349060E94A61B86E9D4
:104570000E94C51B80937D3490937E3482EC95E33A
:104580000E94421C01C0C5E88C2FCF911F910F9152
:10459000FF90EF9008958FE00E94B61A83FF10C03D
:1045A0009091EB35913041F486FF02C081E001C06B
:1045B00080E00E94471F02C00E94481E0C940245E2
:1045C00008958FE00E94B61A84FF03C081E08093B3
:1045D000EA3508958091E6358F30A9F08091EB356A
:1045E00081110FC01092C13588E00E94E61C88300E
:1045F000D9F780E00E943C168FE00E94E61C8F30C5
:1046000021F086E8089581E8089580E0089580917A
:10461000E6358F3051F488E00E94E61C883039F48A
:1046200081E00E943C1680E0089582E8089585E8C4
:1046300008959091EB35911117C0883031F40E94A4
:10464000E61C1092C13588E0089580917D349091E8
:104650007E34892B21F086E10E94E61C03C081E0B4
:104660008093C13586E0089586E808958CEE95E341
:104670000E94421C0C940729CF930E943126C82F18
:1046800060E070E08CEE95E30E94641C009719F0E6
:104690000E941B26C1E00E94C62C0E94131E0E948D
:1046A000FC148C2FCF9108958F929F92AF92BF925E
:1046B000CF92DF92EF92FF920F931F93CF93DF93EE
:1046C000473710F080E03DC05901142F4B01F82E00
:1046D00086E90E94C51B6C010097A1F3FC01C08113
:1046E000D18183E08883F982F40180818A832181EA
:1046F00032812B833C838250823080F41D821E8263
:104700001F82188619861A861B861C86339688E0B7
:10471000DE01159601900D928A95E1F70D87EE86E0
:104720001F87412F50E0CE01841B950BB5018C569D
:104730009F4F0E94B652B6018BEF95E30E94491C31
:1047400081E0DF91CF911F910F91FF90EF90DF906B
:10475000CF90BF90AF909F908F900895CF93C82F28
:1047600086E90E94C51B009769F0DC01ED91FC9180
:1047700029E02083C183BC018BEF95E30E94491C93
:1047800081E001C080E0CF910895EF92FF921F93E6
:10479000CF93DF93182F7B0186E90E94C51BEC01A4
:1047A000892BB1F0812F0E94912AE881F98196E04E
:1047B00090831183482F50E0B701CF0102960E94E9
:1047C000B652BE018BEF95E30E94491C81E001C007
:1047D00080E0DF91CF911F91FF90EF900895CF92ED
:1047E000DF92EF920F93CF93DF93CDB7DEB766974B
:1047F000CDBFDEBF6C01DC01ED91FC9181818C8726
:10480000828193818D879E877481658156814781DE
:1048100030852185928583857F87688B598B4A8B6C
:104820003B8B2C8B9D8B8E8B848589838585968590
:104830008A839B8387858C8380898D8381898E83FE
:1048400082898F83838988878489898785898A87F4
:1048500086898B87228D338DE08C0789418DBE013F
:104860006F5F7F4FCE010C960E940E38C6010E94EA
:10487000CB1B6696CDBFDEBFDF91CF910F91EF903E
:10488000DF90CF900895CF93DF93EC01E881F98119
:10489000628181810E940D38CE01DF91CF910C940D
:1048A000CB1BCF93DF93EC01E881F98181810E94DA
:1048B0006C04CE01DF91CF910C94CB1BCF93DF938F
:1048C000EC01E881F981628181810E948604CE0138
:1048D000DF91CF910C94CB1B0F931F93CF93DF935A
:1048E000FC0140911B3650911C36BA0164E0769F62
:1048F000612D77271124262F952F969596959370E5
:1049000009F441C0A081B181A0932136B093223631
:104910009230C9F410922336109224361092253624
:104920001092263610922736109228361092293689
:1049300010922A36A281B381A0932336B0932436F5
:10494000349684E021C0933019F0329682E01CC086
:1049500002811381D481C581B681A781308581858B
:104960000093233610932436D0932536C0932636F1
:10497000B0932736A09328363093293680932A3671
:104980003A968AE001C080E0222309F447C046FD40
:1049900008C04191519140932C3650932D368E5F33
:1049A00008C0409121365091223640932C365093C6
:1049B0002D362230C1F410922E3610922F361092DE
:1049C00030361092313610923236109233361092C1
:1049D0003436109235362081318120932E36309333
:1049E0002F368E5F1BC02330C9F4D081C181B281C4
:1049F000A3815481458136812781D0932E36C0937F
:104A00002F36B0933036A0933136509332364093E0
:104A100033363093343620933536885F20911E36F6
:104A20002550281B2093383660932B3690932036E0
:104A3000DF91CF911F910F910895EF92FF920F9305
:104A40001F93CF93DF93EC01A881B9811796ED9165
:104A5000FC911897808180931E36E80FF11D8181AB
:104A6000809337361796ED91FC911897018112814A
:104A700000931B3610931C367F0144E0E40EF11CBA
:104A8000838180931F36C7010E946C2403FDBEC042
:104A9000F701E80FF11D302F377030931D3633309A
:104AA00021F48081809336365FC0313009F44BC0E9
:104AB00020F0333009F0AAC057C0808191818093E3
:104AC000393690933A36828180933B36877011F065
:104AD0008C5F01C083E021E0280FDF01A80FB11D2A
:104AE0008C9180933C36482F4770807790E054E05B
:104AF000959587955A95E1F7582F411102C0882363
:104B000089F0BF01620F711D60933D3670933E3690
:104B1000442311F0440F240F552321F048E0849FD3
:104B2000200D112480913836281750F4821B809371
:104B30003F36E20FF11DE0934036F093413638C026
:104B400010923F3635C080913836882351F0863731
:104B500018F086E780933836E0933936F0933A368A
:104B600027C01092383624C080913636873001F144
:104B7000883021F0843009F049C01AC081819281C7
:104B80008093393690933A368381948180933B3673
:104B900090933C36858180933D36868197818093C2
:104BA0003E3690933F3614FF03C080858093403695
:104BB00080914336882399F0333089F480913636DA
:104BC000843011F0873059F4BE0186E196E3DF911D
:104BD000CF911F910F91FF90EF900C94491C809101
:104BE000FA35811113C08091003681110FC0809178
:104BF000423681110BC0313049F4CE01DF91CF91A3
:104C00001F910F91FF90EF900C94BF27CE01DF9181
:104C1000CF911F910F91FF90EF900C94CB1BFC0153
:104C20001082618172816115710521F086E196E340
:104C30000C94491C0895DC01ED91FC91E081E43273
:104C400070F4F0E0EE0FFF1FEE54FA4F259134910F
:104C50002115310511F0F90119940C94CB1B0C941A
:104C6000012FCF9380914336882311F0C0E00FC00D
:104C70008091FF358823D1F360E070E08BEF95E3FE
:104C80000E94641C009791F30E941B26C1E0809152
:104C90001A36882359F060E070E086E196E30E94BE
:104CA000641C009719F00E941B26C1E08C2FCF9145
:104CB000089580914336811119C08091F03581119A
:104CC00015C08091FF35811111C080911A36811174
:104CD0000DC080914936811109C08091C63581117E
:104CE00005C081E09091E6359F3009F080E008959D
:104CF000DC01ED91FC9120E1208341836283BC01C2
:104D00008CEE95E30C94491C2F923F924F925F9248
:104D10006F927F928F929F92AF92BF92CF92DF92CB
:104D2000EF92FF920F931F93CF93DF9300D01F92C8
:104D3000CDB7DEB789839A83DC010D90BC91A02D9D
:104D4000AB83BC831D961C911D971E968C9182FD92
:104D50000BC09091FA35911104C0909100369923BF
:104D600019F0412F61EEF2C0EB81FC81318122818B
:104D7000E380F48005815681B780A0849184828489
:104D80007384648447859DE090831383E4E9F0E0B5
:104D9000E41BF1096B817C81E60FF71F323049F487
:104DA00097E0940F6091D5357091D63572936293E8
:104DB00020C0333019F095E0940F1BC038979DE068
:104DC000940F2090C9353090CA354090CB35509023
:104DD000CC35C090CD35D090CE357091CF35609127
:104DE000D0352082318242825382C482D58276833A
:104DF00067836091D7357091D8356E157F0529F49A
:104E0000332341F021110BC002C0332319F09E5F00
:104E100072936293C12CD12C2223C9F003C060E4A9
:104E2000C62ED12C223031F49E5F602F752F7293E5
:104E300062930AC03897985F00835183B282A3823D
:104E400094828582768267829E5FF292E29250918E
:104E5000123661E0650F60931236BF01615071092F
:104E6000DB015C9380FD03C06894C0F802C0B1E22E
:104E7000CB2A473610F06894D4F8BF01635071090B
:104E8000E32EF12C80E4E89EF02CEE241124422F36
:104E900050E0542F4427550F550F9701242B352BE5
:104EA000C22AD32ADB01CD92DC9297FD4DC0E98066
:104EB000FA8034979083AB81BC811796ED93FC9375
:104EC00018970E942B29EB81FC81E182F28241E05C
:104ED00062E070E0CF010E942B1F811119C081E0B8
:104EE000809343362496CDBFDEBFDF91CF911F91D3
:104EF0000F91FF90EF90DF90CF90BF90AF909F9079
:104F00008F907F906F905F904F903F902F9008957B
:104F1000412F61EEC7010E9478262496CDBFDEBFE7
:104F2000DF91CF911F910F91FF90EF90DF90CF9085
:104F3000BF90AF909F908F907F906F905F904F90B9
:104F40003F902F900C94FC28412F65EE89819A8127
:104F50002496CDBFDEBFDF91CF911F910F91FF90BF
:104F6000EF90DF90CF90BF90AF909F908F907F9009
:104F70006F905F904F903F902F900C947826AF9257
:104F8000BF92CF92DF92EF92FF920F931F93CF9336
:104F9000DC0180913836882309F466C0ED91FC91DC
:104FA0001197C0911F36C08F80912B36818320913D
:104FB0002C3630912D36228333839EEF980F92301A
:104FC00050F5148215821682178210861186128679
:104FD0001386823039F480912E3690912F36848357
:104FE000958323C070912E3660912F3650913036C4
:104FF00040913136309132362091333690913436AB
:105000008091353674836583568347833087218743
:10501000928783870AC012821382148215821682B5
:10502000178210861186128613868091F135C81377
:105030001FC0248135814681578160857185A0908C
:10504000F235B090F335C090F435D090F535E0905E
:10505000F635F090F7350091F8351091F9358285E5
:1050600093850E94294F21F4CD010E94CB1B64C07F
:10507000C093F13584818093F23585818093F33537
:1050800086818093F43587818093F5358085809380
:10509000F63581858093F73582858093F835838551
:1050A0008093F9358091203684871786108A118A7B
:1050B000128A138A148A158A168A20912136309111
:1050C0002236258736878330C9F470912336609164
:1050D000243650912536409126363091273620913E
:1050E00028369091293680912A367787608B518BAC
:1050F000428B338B248B958B868B0BC0823039F49B
:1051000080912336909124368787908B02C0158634
:10511000168680913736878B80913836818F8091C3
:10512000393690913A36828F938F81E18083BD0129
:105130008CEE95E30E94491CCF911F910F91FF9037
:10514000EF90DF90CF90BF90AF900C94FC2810921E
:105150004336109242361092443610920036109226
:1051600001361092FA351092F1358FEF8093F235B7
:105170008093F3358093F4358093F5358093F6353D
:105180008093F7358093F8358093F9351092153672
:105190000895CF93DF93C4E0D6E380E098E78A8751
:1051A0009B87188A81E08C8786E08D871882198218
:1051B0001A821B821C821D821E821F828FEF9FEF2C
:1051C000888799870E94A6518E871F86DF91CF918D
:1051D00008958091443681110EC00E943C1680E0F3
:1051E0000E94EA22811104C081E080934436089530
:1051F00081E00C943C16089580911336811106C00D
:1052000080911536811102C00C94E9280895CF933E
:105210000E942E22C82F882311F0C5E819C00E94D1
:105220008A2C8031D1F70E941F198823B1F30E9484
:10523000A72888E00E9419230E94C9280E94FC2800
:105240008BEF95E30E94421C86E196E30E94421C8C
:105250008C2FCF91089580914436813049F40E947B
:105260000723853829F081E00E943C1610924436CD
:105270000895CF93DF9300D01F92CDB7DEB70E9481
:105280002B298FEF9FEF8B839C8389839A83BE01A9
:105290006D5F7F4F83E50E94752ABE016F5F7F4F70
:1052A00080E50E94752A0E94A72888E00E941923A1
:1052B0000E94C9280E94FC282496CDBFDEBFDF9142
:1052C000CF9108950F931F93CF93DF93EC01088143
:1052D00019810E942B29F801118180E00E943C165F
:1052E00081E0111101C080E00E94F821082F81E0C7
:1052F0000E943C160E94A72888E00E9419231111E1
:105300000E94C9280E94FC288BEF95E30E946E1C26
:1053100086E196E30E946E1C8CEE95E30E946E1C63
:10532000E881F981018380E28083BE018CEE95E300
:10533000DF91CF911F910F910C94491CFF920F9315
:105340001F93CF93DF93C82F8B01F42E8C3409F475
:1053500068C048F5833409F47DC060F4853030F4CA
:10536000823008F077C081118BC074C0823409F498
:1053700089C086C0873409F46DC040F4843409F0D4
:105380007FC0FB0180818093113662C08A3479F13D
:105390008B3409F075C0FB018081918180930C36BC
:1053A00090930D3655C0853560F4833508F052C0B2
:1053B0008E3408F465C0813508F44CC08235B1F1F3
:1053C0005FC0893509F446C020F4873509F058C01C
:1053D00041C08A3521F0803F09F052C03BC0FB013B
:1053E0008081918180930E3690930F3631C0FB01FE
:1053F00080818093043681818093053682818093F9
:1054000006368381809307368481809308368581B0
:1054100080930936868180930A36878180930B3684
:1054200017C0FB0180818093123612C0FB0180817E
:1054300091E0811101C090E090931336882331F000
:105440000E942B2986E00E94192302C00E94FC289A
:10545000D0E019C0B8018C2F0E941F20D82F8138AE
:1054600091F40E940723B8018C2F0E941F20D82F8F
:10547000811109C081E080938034F1100AC011C00D
:10548000D4EF01C0D8EEFF2061F0809180348823F2
:1054900041F080911336811104C00E94EA221092DB
:1054A00080348D2FDF91CF911F910F91FF90089540
:1054B0000F931F93CF93DF938C01FC01C081D181A7
:1054C000BE016E5F7F4F41E089810E949E299981D4
:1054D0009A839FE198838983B8018CEE95E3DF91ED
:1054E000CF911F910F910C94491C0F931F93CF9351
:1054F00090914436913029F0CF911F910F910C94E7
:105500001F208B01C82F0E942B29B8018C2F0E94CD
:105510001F20C82F0E94FC288C2FCF911F910F9124
:105520000895883028F4E82FF0E0E55EF94F0FC0C9
:1055300090EC980F903228F4E82FF0E0E554FA4F01
:1055400006C0803F30F0E82FF0E0E65FFA4F84912C
:10555000089580E0089510924336FB0190819D30BC
:1055600031F4682F4381818192810E9478260C94C6
:10557000FC28FC018081823009F083E080931D3794
:10558000738164815581468137812085918582852B
:1055900070932037609321375093223740932337FD
:1055A00030932437209325379093263780932737DD
:1055B0008181928180931E3790931F37838582303B
:1055C00009F083E0809312378685809315378785AD
:1055D0008093163780898093173781898093183795
:1055E000828980931937838980931A3784898093BD
:1055F0001B37858980931C37848595858093133765
:10560000909314370895EF92FF920F931F93CF93C7
:10561000DF93E0908334F0908434D701ED91FC91D6
:1056200094EF9083118282834383548365837683CE
:105630002783809142378823C9F0909104379230B4
:10564000A8F09087CBE4D6E3ABE5B6E380E0099120
:1056500019912991399101871287238734872D91D8
:1056600025878F5F35969813F2CF01C01086B7015A
:105670008CEE95E3DF91CF911F910F91FF90EF900A
:105680000C94491C8F929F92AF92BF92EF92FF921F
:105690000F93CF93DF93D82F4A015B01C22F86E986
:1056A0000E94C51B009709F476C0DC01ED91FC91C6
:1056B00024EF208321E0218320911D372283209134
:1056C0001E3730911F3723833483B0912037A09148
:1056D00021377091223760912337509124374091C0
:1056E00025373091263720912737B583A6837783D6
:1056F0006087518742873387248720911237258717
:10570000209113373091143726873787209115372A
:10571000208B20911637218B20911737228B2091D7
:105720001837238B20911937248B20911A37258B1A
:1057300020911B37268B20911C37278BD08F818E91
:10574000928EA38EB48EC58F0023B1F0068FD70141
:1057500020E03596201789F04D915D916D917C91F7
:105760001397428F538F648F758F14963C911497C3
:10577000368F2F5F1596EDCF168EBC018CEE95E31C
:10578000DF91CF910F91FF90EF90BF90AF909F90DE
:105790008F900C94491CDF91CF910F91FF90EF9067
:1057A000BF90AF909F908F9008950C946C4080E0D4
:1057B0000C941218809186348150823028F46CEF5A
:1057C00076E382E00E941F20109286341092853486
:1057D000109281340E94B53F0E9429451092823474
:1057E00010922837109243360E94D72B0E94E8402F
:1057F0000C94FC2880912837882341F0109264365D
:10580000109265368BE08093853408950E945B404A
:1058100040915F365091603660916136709162368A
:105820002091633680E10E94032B0C94DA2B909137
:105830002837992349F090E0809364369093653639
:105840008BE080938534089520E04FEF5FEFBA013D
:105850000E94032B0C94DA2B809111378930F1F0E0
:1058600028F4833061F0863069F00895803199F032
:105870008231B9F08F30E9F48FE090E014C083E01A
:1058800090E002C086E090E08093643690936536A5
:1058900088E10C94172C80E190E005C089E090E04D
:1058A000F3CF82E190E080936436909365360C9458
:1058B000DA2B0895EF92FF920F931F93CF93C82F87
:1058C00080931137E12CF12C0CE21CE220E040E047
:1058D00050E867E070E080E00E940017882349F0FC
:1058E0008C2F90E0CF911F910F91FF90EF900C942F
:1058F0002C2CCF911F910F91FF90EF900895E9E02C
:10590000F7E31082118213821282168217821482A8
:10591000158208951092863485E496E30E94421C15
:105920000E947F2C10922837E8E3F7E381E0808320
:10593000108681871286818323E639E022833383B0
:1059400092E094832BE839E02583368317829FEA1F
:1059500093878487858780E10895CF93DF93EC0157
:1059600081E00E94F821811105C086E00E94192380
:105970000E948A2CE881F98195EF90838183BE0192
:105980008CEE95E3DF91CF910C94491C80914936C0
:10599000882351F060E070E085E496E30E94641C87
:1059A000009711F00E94012F8091813481115DC018
:1059B000E09185348E2F90E0FC013197E731F105BD
:1059C00008F053C08827E559FE4F8F4F0C94EC4EDA
:1059D00081E080938634109264361092653610927E
:1059E00063368FEF9FEFDC0180935F3690936036D4
:1059F000A0936136B09362360E947F2C0E94D840FB
:105A000021E080912837811120E042E061E08EE0C2
:105A10000C947E370C94EB370C94CE440C94F140EC
:105A200080E00E94D03F80918634813011F487E07D
:105A300003C08230D1F482E18093853408950C94C0
:105A4000F1370C94FC378091643690916536892B40
:105A500031F480913F37823010F00E9402400E9462
:105A6000CF380C94FA2B0C94073808952F923F925C
:105A70004F925F926F927F928F929F92AF92BF925E
:105A8000CF92DF92EF92FF920F931F93CF93DF930A
:105A9000CDB7DEB76897CDBFDEBFDC01ED91FC91DD
:105AA00028E1DE01119601900D922A95E1F7288DEB
:105AB000222319F00E94CB1B04C08093833490935F
:105AC000843480913837811116C0888D882369F01D
:105AD000CE0102960E94B92AE12CF12C00E020E0D0
