:100000000C94C7020C94E8020C94FC070C94E802D0
:100010000C94E8020C94E8020C94E8020C94E802B8
:100020000C94E8020C94E8020C94E8020C94E802A8
:100030000C94E8020C94E8020C94150C0C94E80261
:100040000C94460C0C94E8020C94E8020C94E80220
:100050000C94E8020C94E8020C944A320C94E802E6
:100060000C94E8020C94E8020C94E8020C94E80268
:100070000C94E8020C94E8020C94E8020C94E80258
:100080000C94E8020C94E8020C94BC0D0C94E80269
:100090000C94E8020C94E8020C94E8020C94E80238
:1000A0000C94E8020C94E8020C94E8020C94E80228
:1000B0000C94E8020C94E8020C94E8020C94E80218
:1000C0000C94E8020C94E8020C94E8020C94E80208
:1000D0000C94E8020C94E8020C94E8020C94E802F8
:1000E0000C94E8020C94E8020C94E8020C94E802E8
:1000F0000C94E8020C94E8020C94E8020C94E802D8
:100100000C94E8020C94E8020C94E8020C94E802C7
:100110000C94E8020C94E8020C94E8020C94E802B7
:100120000C94E8020C94E8020C94E8020C94E802A7
:100130000C94E8020C94E8020C94E8020C94E80297
:100140000C94E8020C94E8020C94E8020C94E80287
:100150000C94E8020C94E8020C94E8020C94E80277
:100160000C9479070C94E8020C94A5070C94E8020F
:100170000C94E8020C94E8020C94E8020C94E80257
:100180000C94E8020C94E8020C94E8020C94E80247
:100190000C94E8020C94E8020C94E8020C94E80237
:1001A0000C94E8020C94E8020C94E8020C94E80227
:1001B0000C94E8020C94E8020C94E8020C94E80217
:1001C0000C94E8020C94E8020C94E8020C94E80207
:1001D0000C94E8020C94E8020C94E8020C94E802F7
:1001E0000C94E8020C94E802D110E6104F11F510BF
:1001F0004F11CA10D6104F114F114F114F114F11FF
:1002000084104F114F114F114F114F114F11071102
:100210004F114F111A11E6104F11F5104F11CA105E
:10022000D6104F114F114F114F114F1184104F1114
:100230004F114F114F114F114F1107114F114F1106
:100240001A119C2A132B412BCA2A412B412B412BDB
:10025000332B412B3C2BCA2A3C2B732A1B315631A2
:1002600056313B31563156314E315631563152317D
:100270003931563156313D31563156315031563182
:10028000563156313F318F32ED329332AC32B33288
:10029000C932D132D532D932DD32E532E9320C946D
:1002A000BF310C94DA230C94C9320C94B51A0C9417
:1002B000261C0C943C2B0C9439310C94051D0C9489
:1002C000E9320C94B3320C94D4260C94CA100C94DA
:1002D0001B310C94132B0C9438160C94421D0C9467
:1002E000AC320C944C250C9452310C94EE020C94CC
:1002F000D9310C943B310C9407030C947A1C0C9468
:10030000732A0C94AB1F0C9450310C94121D0C9456
:1003100045280C9404290C94D02D0C94901F0C9417
:1003200063220C94CA2A0C943C2A0C9458180C94FE
:1003300022160C947D060C944E310C94DD320C94F4
:100340008A180C94D5320C9484100C94D1320C94ED
:100350003D310C9461300C941A110C94B2310C9410
:10036000D9320C9436330C94D1100C94001E0C949A
:10037000AE1C0C9493320C947E2F0C94E0300C94B1
:10038000D6100C940A2D0C949C2A0C943F310C949A
:10039000F5100C9402330C9458220C9407110C9411
:1003A000F81C0C948F320C94FE1A0C94ED320C94C1
:1003B000412B0C94971C0C94211B0C94341D0C9411
:1003C00056310C947D2C0C94E6100C94AF280C94B0
:1003D0004F110C94881C0C94332B0C945A060C94DB
:1003E000EA020C94A2190C94CC310C94E5326E61A3
:1003F0006E00696E660000407A10F35A00A0724EDB
:1004000018090010A5D4E80000E87648170000E4B9
:100410000B54020000CA9A3B000000E1F505000001
:1004200080969800000040420F000000A086010066
:100430000000102700000000E80300000000640036
:10044000000000000A0000000000010000000000A1
:100450002C76D888DC674F0823DFC1DFAE59E1B1C5
:10046000B796E5E3E453C63AE651997696E8E6C2D4
:100470008426EB898C9B62ED407C6FFCEFBC9C9FDB
:1004800040F2BAA56FA5F490055A2AF75C936B6CFD
:10049000F9676DC11BFCE0E40D47FEF520E6B500F1
:1004A000D0ED902E0300943577050080841E08005F
:1004B00000204E0A000000C80C333333330F986E0F
:1004C00012831141EF8D2114893BE65516CFFEE6CC
:1004D000DB18D1844B381BF77C1D901DA4BBE42492
:1004E000203284725E228100C9F124ECA1E53D270F
:1004F0000403030303020100FFFEFDFCFAF8F4EF1E
:10050000001E8A18A219DA23000000004528000006
:100510000000D42600000A2D0000D02DAF280000D6
:100520007A1C261C0000971C881C0000000000009C
:10053000000000000000121DAE1C00000000341D71
:10054000051D0000421DF81C080101010101010107
:10055000010401080201010101020101020102017D
:100560000102010202010101010104010101020174
:100570000136337E2FE0300233B231BF31CC31D976
:1005800031010102010201010101010101001124F7
:100590001FBECFEFCDBFDFE5DEBF00E00CBF13E233
:1005A000A0E0B0E2EEE2FFE900E00BBF02C007907E
:1005B0000D92A631B107D9F726E3A6E1B3E201C057
:1005C0001D92A734B207E1F70E944D480C94954F55
:1005D0000C94000061E081E00C94670DEF92FF92B3
:1005E0000F931F9362E080E00E94670DE12CF12CD5
:1005F0000EEE12E020E048E853E160E070E085E0B4
:100600000E94570A1F910F91FF90EF900895EF926B
:10061000FF920F931F9380913423882359F1909177
:100620003323891302C010923323E09133238AE0ED
:10063000E89FF0011124EA5CFC4D80819181809358
:100640002B2390932C2380931F239093202387E2C6
:1006500093E20E9494318823C9F0809133238F5F05
:100660008093332360E082E01F910F91FF90EF9021
:100670000C94670DE12CF12C07E013E020E040E53D
:1006800053EC60E070E084E00E94570A1F910F91E4
:10069000FF90EF900895EF92FF920F931F938111B7
:1006A00027C000E024E040E050E060E074E081E03A
:1006B0000E94B9171F928AE18F938CE490E29F9376
:1006C0008F930E94824DE12CF12C0EEE12E020E07F
:1006D00048E853E160E070E085E00E94570A0F901F
:1006E0000F900F900F901F910F91FF90EF90089532
:1006F00081E01F910F91FF90EF900C947817CF92AB
:10070000DF92EF920F93CF93DF931F921F92CDB79B
:10071000DEB790914A239F5F90934A23811133C0A3
:100720008E1511F1F60123852A31C9F42485211192
:1007300016C0218132812E3B3A4B89F4F601258582
:10074000368537FF0CC08DE790E20E949C4D20E873
:10075000A601F601648583850E94051728C0F1E192
:10076000CF0ED11C8F5FDCCF933050F400E024E03B
:1007700040E050E060E074E081E00E94B91717C0EB
:100780008BE990E206C08A3E79F4933078F38BECE3
:1007900090E20E949C4D19821A82BE016F5F7F4FCA
:1007A00083E50E948F1703C081E00E9478170F90A5
:1007B0000F90DF91CF910F91EF90DF90CF90089540
:1007C000AF92CF92EF920F93CF93DF931F92CDB75B
:1007D000DEB781111CC0633549F481E08983BE0115
:1007E0006F5F7F4F81E40E948F1714C0613469F4FA
:1007F000A12CC12CEE24E3940FE02FE040E06AE14D
:100800008EEB9AEB0E94E51705C0623519F081E086
:100810000E9478170F90DF91CF910F91EF90CF90BA
:10082000AF900895EF92FF920F931F93CF93DF93B2
:100830001F92CDB7DEB781115FC08AEB8F938EEB2D
:100840008F9381EF90E29F938F930E94824D85E07A
:100850000E94690B60E080E00E94670D82E0809357
:10086000272310922B2310922C2310922D231092C9
:100870002E2310922F2310923023109231231092A6
:100880003223809328232091492930914A292093AB
:10089000292330932A2310921F2310922023109291
:1008A00021231092222310922323109224231092AA
:1008B00025231092262380931C2320931D233093FD
:1008C0001E231092332381E08983BE016F5F7F4F27
:1008D00082E50E948F17E12CF12C07E013E020E065
:1008E00040E553EC60E070E084E00E94570A0F900E
:1008F0000F900F900F9003C081E00E9478170F9027
:10090000DF91CF911F910F91FF90EF9008952F925B
:100910003F924F925F926F927F928F929F92AF928F
:10092000BF92CF92DF92EF92FF920F931F93CF93DC
:10093000DF9329013A014B01D82FC92FE0913623CB
:10094000F09137233097A1F0A0903823B09039234D
:10095000C0903A23D0903B23E0903C23F0903D237D
:1009600000913E2310913F230E94864B09F447C01B
:10097000209040233090412321143104C1F0A090F5
:100980004223B0904323C0904423D0904523E0906D
:100990004623F09047230091482310914923920168
:1009A000A301B4018D2F9C2F0E94864B49F1EF2BA0
:1009B00029F0232841F521E030E002C020E030E0BA
:1009C00019018FEF281A380A4AE0429FC001439F5D
:1009D000900D11248A5C9C4DFC0121923192DC0126
:1009E00012964C9251826282738284829582D6835F
:1009F000C783809135238F5F8093352301C01F010A
:100A0000E12C810104C0EE24E3940FEF1FEF92016B
:100A1000A301B4018D2F9C2F0E943C17DF91CF9131
:100A20001F910F91FF90EF90DF90CF90BF90AF900C
:100A30009F908F907F906F905F904F903F902F90FE
:100A40000895411104C08091352380933423089583
:100A5000EF92FF920F931F93CF93DF93F901808161
:100A6000823581F48181843569F48281823451F444
:100A70008BE091E2DF91CF911F910F91FF90EF906A
:100A80000C949C4DEF0160E081E00E94670D88812D
:100A90009981AA81BB818F3F2FEF9207A207B207EE
:100AA00099F02C811F922F93BF93AF939F938F93B5
:100AB00084E291E29F938F930E94824D8DB79EB7FF
:100AC00008968DBF9EBF04C089E591E20E949C4DAF
:100AD000E12CF12C0AEE12E020E048E853E160E05E
:100AE00070E085E00E94570ADF91CF911F910F912E
:100AF000FF90EF9008950F931F93CF93DF931F9272
:100B0000CDB7DEB7182F092F61111CC085E00E94F8
:100B1000690B60E080E00E94670D0F931F938EE7E2
:100B200091E29F938F930E94824D81E08983BE0161
:100B30006F5F7F4F82E50E948F170F900F900F908D
:100B40000F9003C081E00E9478170F90DF91CF9142
:100B50001F910F9108950895DF92EF92FF920F93E6
:100B60001F93CF93DF93EC0161E082E00E94670D59
:100B70008981853109F444C070F58131D9F120F5BE
:100B8000803109F046C00E811A81FB80EC80DD8047
:100B900082EA91E20E949C4DDF92EF92FF921F93B6
:100BA0008EEA91E29F938F930E94824D1F920F9342
:100BB00084EC91E29F938F930E94824D8DB79EB7F4
:100BC0000A968DBF9EBF29C08231B9F0843109F5E4
:100BD0008FE892E220C08831B1F028F48631C9F460
:100BE0008CE392E218C0813E89F0893E91F488EE50
:100BF00092E211C081ED91E20EC087EF91E20BC04D
:100C000082E192E208C083E692E205C081EB92E2C3
:100C100002C08FEF92E20E949C4D8AE090E00E9419
:100C2000964DFE01329684E0A7E1B3E201900D9269
:100C30008A95E1F78E8180931B23009116230F5F25
:100C400000931623EE24E39427E133E245E06CE1C0
:100C500073E282E00E94AB16E12CF12C07E013E076
:100C600020E040E553EC60E070E084E00E94570A29
:100C7000DF91CF911F910F91FF90EF90DF9008953A
:100C8000EF92FF920F931F9361110FC081E00E94BA
:100C9000670DE12CF12C0AEE12E020E048E853E168
:100CA00060E070E085E00E94570A1F910F91FF906D
:100CB000EF900895CF93DF931F92CDB7DEB78A30C0
:100CC00061F48DE0898341E0BE016F5F7F4F80E07A
:100CD0000E94DE078823B9F38AE0898341E0BE01E0
:100CE0006F5F7F4F80E00E94DE078823B9F380E0CA
:100CF00090E00F90DF91CF910895CF93DF931F92F3
:100D0000CDB7DEB741E0BE016F5F7F4F80E00E944C
:100D1000E7078823B9F389818D3011F48AE089834C
:100D2000898190E00F90DF91CF910895CF93DF9369
:100D30001F92CDB7DEB741E0BE016F5F7F4F80E00D
:100D40000E94E707813019F4898190E002C08FEF9B
:100D50009FEF0F90DF91CF9108950F931F93CF9343
:100D6000DF938C01EB011C161D065CF44C2FB801BF
:100D700080E00E94DE0790E0C81BD90B080F191F06
:100D8000F2CFDF91CF911F910F9108950F931F9391
:100D90008B019C01DC01CB019E5EA548BF4FBC01CD
:100DA000CD0142E0660F771F881F991F4A95D1F742
:100DB000A9019801E3E0220F331F441F551FEA9554
:100DC000D1F70E94454B21503109E0E6F6E088E07A
:100DD000818384E0828382898861828BE0EAF9E002
:100DE000378326838CE1848383E085838CE383834C
:100DF0001F910F910895CF93DF93482F2091A3095E
:100E0000237F2093A309E091F5283091F6283E171F
:100E100010F029E001C02FEF2E0F231B822F621745
:100E200008F4862FA42FB92F282F222391F0909118
:100E3000F6283D91C92FD0E0CF51D74D3883993056
:100E400019F41092F62803C09F5F9093F628215062
:100E5000ECCF9091F928911109C0F0E0EF51F74DD6
:100E600090819093A00991E09093F9289091A30923
:100E70009C609093A309DF91CF910895DC0180914C
:100E8000FA288823A9F19091A3099F7C9093A30944
:100E90008A3058F08091F8288093F7288AE0809370
:100EA000FA286A3028F06AE003C0861708F4682F31
:100EB000262F2223B9F0E091F728F0E0EF51F74D0B
:100EC00082858D939091F7289F5F9093F7283091BA
:100ED000FA2831503093FA2821509A3051F7109265
:100EE000F728E7CF8091A30980638093A309862F19
:100EF00008951F920F920FB60F9211240BB60F9206
:100F00008F939F93EF93FF938091F8289091FA2805
:100F10009F5F9093FA289091A009E82FF0E0EF519D
:100F2000F74D9287893019F41092F82803C08F5F2B
:100F30008093F828FF91EF919F918F910F900BBEB6
:100F40000F900FBE0F901F9018951F920F920FB623
:100F50000F9211240BB60F928F93EF93FF93809112
:100F6000F528893019F41092F52803C08F5F80931B
:100F7000F528E091F5288091F628E81739F0F0E09F
:100F8000EF51F74D80818093A00902C01092F9289B
:100F9000FF91EF918F910F900BBE0F900FBE0F90AE
:100FA0001F901895811108C060E076E980E090E01C
:100FB0000E94C60680E0089585E808959B0181118E
:100FC00004C0642FC9010C94FB0680E008959B01C6
:100FD000811104C0642FC9010C943E0780E008957C
:100FE00080934B2390934C23E0E4F6E081E0828BE6
:100FF00094E09287848708951F920F920FB60F9204
:1010000011240BB60F922F933F934F935F936F93DF
:101010007F938F939F93AF93BF93EF93FF93E09151
:101020004B23F0914C231995FF91EF91BF91AF9114
:101030009F918F917F916F915F914F913F912F91F0
:101040000F900BBE0F900FBE0F901F901895209120
:10105000CF0127FDFCCF1092C2019093C101809374
:10106000C00186E08093CA01EBECF1E021E030E0C2
:1010700088ED90E084BF20838091C40108950E9490
:10108000880C0E949F0C0E94E50D0E9478090E9426
:10109000780C0E94820C21E030E088ED90E084BF63
:1010A0002093800080E008950C941C0AEF92FF9238
:1010B0000F931F93CF93DF93FB01BA01813051F45B
:1010C000A9018E2FDF91CF911F910F91FF90EF908B
:1010D0000C94D30C811119C0CA018E0F9F1F81304F
:1010E0009041A8F4E9018901060F171F7F01E21A58
:1010F000F30AC017D10739F0CE018E0D9F1D0E9453
:1011000027088993F6CF80E003C088EE01C085E808
:10111000DF91CF911F910F91FF90EF9008955F9213
:101120006F927F928F929F92AF92BF92CF92DF92F7
:10113000EF92FF920F931F93CF93DF93EC018C01FB
:10114000060F171F013020E1120708F03FC07A0197
:1011500083E3782E95E3692E28EDC22ED12C8824C6
:101160008394912C4BECA42EBB24B39456E3552EC0
:10117000C017D10749F1CE010E942708F7019191CC
:101180007F018917F9F08C2F2091CF0127FDFCCF2B
:101190002091CF0121FF06C05092CA019601F501AE
:1011A00024BF80827092CA018093C0011092C10155
:1011B0001092C2019093C4016092CA019601F50198
:1011C00024BF80822196D4CF80E001C085E8DF91E2
:1011D000CF911F910F91FF90EF90DF90CF90BF9034
:1011E000AF909F908F907F906F905F900895109236
:1011F00024068FEF80932106CFEF8FEF9FEF0E94A1
:10120000A909C0932706F9CF0F931F938091FB285C
:101210009091FC2840912008509121082091FB28B2
:101220003091FC288217930789F7A0E0B0E0DC0139
:101230009927882760E070E08A019B01082B192B11
:101240002A2B3B2BC901B8011F910F9108950F93D1
:101250001F93CF93CFB7F894E0914F23EF3F09F45A
:1012600042C029E0E29FF0011124E350F74D808154
:101270009181A281B3812091FB283091FC282A170B
:101280003B0769F4809328089093290880910C0803
:10129000806180930C0880910708836003C080916F
:1012A00007088C7F809307080E940409E0914F2370
:1012B00029E0E29FF0011124E350F74D00811181F4
:1012C00022813381DC01CB01801B910BA20BB30B7C
:1012D0000196A11DB11D8F3F9F4FAF4FBF4718F41F
:1012E00081E080935023CFBFCF911F910F9108953C
:1012F00010925123109250231092FB281092FC2838
:101300008FEF80934F2380934E2380934D23EDEFF7
:10131000F8E2808714821582399699E2E333F9075F
:10132000C1F70C94C10C811102C088E001C08AE0B1
:1013300080930008809340080895CF93DF93EC01D9
:101340000E940409688379838A839B83DF91CF910C
:1013500008954FB7F8948630910518F12091200830
:1013600030912108820F931F20912008309121088D
:101370002817390740F420912008309121082817B8
:101380003907C8F30EC02091200830912108821738
:101390009307C8F3209120083091210828173907B6
:1013A000C8F34FBF089529E0829FC0011124FC01BA
:1013B000E350F74D81E024813581232B09F480E04F
:1013C0000895809150238823B1F110925023909179
:1013D0005123992381F180914E23A0914D23E091D7
:1013E0004F238F3F39F4AF3F29F4E0934D23E0932F
:1013F0004E230AC089E0A89FD0011124A350B74D05
:101400001896EC93E0934D2389E08E9FF001112410
:10141000E350F74D208520934F23E0914D238E9F7D
:10142000F0011124E350F74D8FEF80879150909396
:1014300051230C9427090895CF93DF93CFB7F894E5
:101440000E94E109CFBFC9E0DFEF80914E238F3FBB
:1014500059F18FB7F894A0914E23CA9FD00111245F
:10146000A350B74D18969C9118971496ED91FC9146
:10147000159716962D913C9117971896DC9318970F
:1014800014961D921C92159716961D921C921797F2
:1014900090934E239F3F11F490934D238FBF30972D
:1014A000A1F2C9011995D1CFDF91CF9108952F9263
:1014B0003F924F925F926F927F928F929F92AF92E4
:1014C000BF92CF92DF92EF92FF920F931F93CF9331
:1014D000DF93CDB7DEB72797CDBFDEBFD82E4A0149
:1014E0005B01C22E85E0482E4D1408F4D5C00115CD
:1014F000110509F4D5C02D2C312C29E0D29EF00124
:101500001124E350F74D84819581892B09F0C6C0E1
:101510000E940409CC2021F031E0C316B1F0C0C014
:101520002401350140E8441A51086108710850E867
:1015300045165FEF550665065FE7750608F0B2C011
:10154000860E971EA81EB91E15C024013501B0E8ED
:101550004B1A510861087108A3019201261B370B31
:10156000480B590BDA01C90180389F4FAF4FBF4775
:1015700008F098C0CFB6F8940E94E10930914F234B
:10158000809151233F3F21F0932F232F1F8212C0C0
:10159000D0924F2399E0929DF001939DF00D11247C
:1015A000E350F74D308791E05EC02F3F39F45F8103
:1015B0005F5F5F836F816813F8CF44C0A9E0A29F8B
:1015C000F0011124E350F74D408151816281738114
:1015D00024013501441A550A660A770A4FEF44166A
:1015E000540664064FE7740618F4922F2085DFCF67
:1015F000A29DF001A39DF00D1124E350F74D20872B
:101600008F5F32130DC0D0924F2380829182A282CD
:10161000B38204831583E682F7828093512337C017
:10162000A99FD0011124A350B74D1896DC92808257
:101630009182A282B38204831583E682F78280932B
:10164000512327C029E0299FF0011124E350F74DD1
:10165000D086229DF001239DF00D1124E350F74D1B
:101660009FEF908790E029E0229DF001239DF00DEF
:101670001124E350F74D80829182A282B3820483C9
:101680001583E682F7828F5F8093512391110E9428
:101690002709CFBE80E007C08AE805C088E803C0FC
:1016A00088EE01C08BE82796CDBFDEBFDF91CF91DA
:1016B0001F910F91FF90EF90DF90CF90BF90AF9070
:1016C0009F908F907F906F905F904F903F902F9062
:1016D0000895EF92FF921F93CF93DF93863008F027
:1016E0004CC0C82F1FB7F8940E94E109D091512334
:1016F000DD2309F444C020914F239D2FE22F822F38
:1017000049E0C8132FC0EC2EF12C89E0C2130DC0A4
:101710008E9DF0018F9DF00D1124E350F74D8085D3
:1017200080934F230E9427090FC08E9DD0018F9D6B
:10173000B00D1124A350B74D18969C918E9FF001C7
:101740001124E350F74D908789E08E9DF0018F9D25
:10175000F00D1124E350F74D8FEF8087D150D093D7
:10176000512353C0489FF0011124E350F74D3085B9
:101770009150E82F21F0832FC4CF8AE850C0909178
:101780004E23292F892F39E08F3FB9F18C132DC0BB
:101790004C2F50E080914D23C91312C0C81304C0D0
:1017A0008FEF80934D2309C089E0849FF001859FCE
:1017B000F00D1124E350F74D808580934E2325C012
:1017C000E9E0E49FD001E59FB00D1124A350B74D8F
:1017D00018969C91E29FF0011124E350F74D9087F9
:1017E000C81313C020934D2310C0389FF00111245B
:1017F000E350F74D282F8085C7CF80E01FBF882397
:1018000011F080E00CC089E80AC089E0C89FF001AF
:101810001124E350F74D1482158281E0EFCFDF9160
:10182000CF911F91FF90EF9008951F920F920FB6E6
:101830000F9211240BB60F922F933F934F935F9308
:101840006F937F938F939F93AF93BF93EF93FF9388
:101850008091FB289091FC2801968093FB2890931F
:10186000FC280E942709FF91EF91BF91AF919F91B2
:101870008F917F916F915F914F913F912F910F9039
:101880000BBE0F900FBE0F901F9018951F920F92D6
:101890000FB60F9211248F9380915123882319F052
:1018A00081E0809350238F910F900FBE0F901F9077
:1018B00018950F931F934091FB285091FC2800919D
:1018C00068081091690860E070E0BA015527442764
:1018D00020E030E0402B512B622B732BFC01408326
:1018E0005183628373831F910F91089581E008955E
:1018F00085E88093800181E68093810188E680936A
:1019000082010895E0EAF0E0828184608283089594
:1019100082E0809350008091510081FFFCCF21E054
:1019200030E088ED90E084BF2093400082E0809317
:101930005600809160008160809360000895E0E42B
:10194000F6E08081806180838081806880838081EF
:1019500081608083808180628083808188608083D1
:1019600080818F7B8083E0E6F6E080ED818380E2FA
:10197000828380E1858380818E7F808381E0808B7C
:10198000089588E0809300088093400880EF80935A
:101990000C0880E380934C0883E08093060889E27A
:1019A0008093430808950F931F93CF93DF93CDB790
:1019B000DEB7C054D109CDBFDEBFFE01319690E045
:1019C000DF0131E070E103E0109149062091490602
:1019D0002C7F2093490630934606709346060000FC
:1019E00000000000000000000000000000000000F7
:1019F00000000000000000000000000000000000E7
:101A000000000000000000000000000000000000D6
:101A10000000000000000000000000000000009333
:101A2000C3082091C20827FFFCCF9093C3082091E0
:101A3000C20827FFFCCF1092C3082091C20827FFDD
:101A4000FCCF2091C3087093450630934506109350
:101A5000490621939F5F903409F0B6CF20E030E033
:101A6000FD018E010F5B1F4F91912927022E2295B8
:101A7000207F2025032E322F22952F7002262695B7
:101A800032272327220F220F220F2025E017F107EC
:101A900059F7232B61F4A80FB11DFA018E2F841B77
:101AA000861718F48D918193F9CF80E001C085E805
:101AB000C05CDF4FCDBFDEBFDF91CF911F910F9193
:101AC0000895E0E2F6E087E081838683089581301F
:101AD00021F0823021F482E003C081E001C080E087
:101AE000662369F06130B1F421E030E0A90102C061
:101AF000440F551F8A95E2F740932606089521E08A
:101B000030E0A90102C0440F551F8A95E2F74093C7
:101B10002506089521E030E0A90102C0440F551FB9
:101B20008A95E2F7409327060895E0E2F6E088E020
:101B3000828388E1838B80E49FE10197F1F7089528
:101B40008091280683FB882780F908952FB7F894A1
:101B500098E09093B000E0E2F6E08BE1838B818522
:101B60008C7F826081879287E0EAF0E082818260E8
:101B7000828378942FBF08951F920F920FB60F9211
:101B800011240BB60F928F93EF93FF93E0E2F6E0F0
:101B90008285877F8287E8E4F0E080818E7F808382
:101BA000FF91EF918F910F900BBE0F900FBE0F9092
:101BB0001F9018950E94A60DE8E4F0E08081807FD8
:101BC00085608083789488950895E0ECF8E080E55E
:101BD000808380818168808380E1809345060895B9
:101BE00020914906909149069C7F90934906806C0C
:101BF00090E1909346068093C3088091C20887FFC6
:101C0000FCCF6093C3088091C20887FFFCCF80E1BE
:101C100080934506209349060895209149069091A6
:101C200049069C7F90934906806890E19093460610
:101C30008093C3088091C20887FFFCCF1092C3082D
:101C40008091C20887FFFCCF8091C30890E19093F8
:101C5000450620934906089520E12093460620E298
:101C60002093C3082091C20827FFFCCF1092C3081D
:101C70006130A1F0262FFC013091C20837FFFCCF64
:101C80003091C3081092C308319321502130A1F73D
:101C9000625070E06F5F7F4F860F971F2091C208E0
:101CA00027FFFCCF2091C308FC01208380E18093B3
:101CB0004506089520E12093460620E62093C308B8
:101CC000FC012191CF0161503091C20837FFFCCF58
:101CD0002093C3086111F4CF8091C20887FFFCCF25
:101CE00080E1809345060895CF93DF93C62FD42FCC
:101CF0000E940D0E8C2390E002C095958795DA9591
:101D0000E2F7DF91CF9108950F931F93CF93DF9365
:101D1000182FD62F042FC22F0E940D0E2C2F01C07A
:101D2000220F0A95EAF728272D23682F6227812F93
:101D3000DF91CF911F910F910C94F00D20914906E6
:101D4000909149069C7F9093490690E190934606B6
:101D500090E49093C3089091C20897FFFCCF8093C2
:101D6000C3088091C20887FFFCCFFB01819180935B
:101D7000C3088091C20887FFFCCF4150B9F780E1CA
:101D80008093450620934906089500000000000056
:101D90000000000000000000000000000000000043
:101DA0000000000000000000000020914906909112
:101DB00049069C7F9093490690E1909346061092C5
:101DC000C3089091C20897FFFCCF8093C30880910D
:101DD000C20887FFFCCFFB011092C3088091C208A4
:101DE00087FFFCCF8091C30881934150A9F780E120
:101DF000809345062093490608950F931F93CF9330
:101E0000DF9382E593E20E94990F0BE713E2C7E5A7
:101E1000D3E208831983BE0182E593E20E94A00FFA
:101E20000A561F4F249683E2CB37D80791F7DF91EC
:101E3000CF911F910F91089560E070E082E593E2E9
:101E40000C94BB0F009729F0BC0182E593E20C943F
:101E5000A00F08959F92AF92BF92CF92DF92EF9220
:101E6000FF920F931F93CF93DF939FB6F894DC01FB
:101E700014962C91211103C0C0E0D0E04CC06A013F
:101E80005B018C01FC01C081D181452BA1F07E0159
:101E9000209791F3D60112966D917C911397ED9155
:101EA000FC91888199811995811108C07E010A8071
:101EB000DB81C02DEDCF209751F4DECFAB2859F553
:101EC000F80180819181C817D90751F403C0672BAD
:101ED00011F57E018A819B81D8018D939C9305C069
:101EE0008A819B81F70182839383D80112968D9119
:101EF0009C911397C817D90721F41296ED92FC9282
:101F00001397F80184818150848380819181892B8A
:101F100011F4128213829FBECE01DF91CF911F91E7
:101F20000F91FF90EF90DF90CF90BF90AF909F9078
:101F30000895FC0110821182128213821482089586
:101F4000FC019FB7F8948481811103C06083718381
:101F500006C0A281B38112966D937C93139762831E
:101F60007383DB0112961D921C92139784818F5FFD
:101F700084839FBF0895AB0160E070E00C942A0F4A
:101F8000AB0161E070E00C942A0FCF93DF93EC017A
:101F90008C81882361F060E070E0CE010E94BB0F6D
:101FA000009711F41C8203C00E94220FF1CFDF9131
:101FB000CF9108950F931F93CF93DF93CDB7DEB7E3
:101FC0002897CDBFDEBF40E06FE181E00E94740E34
:101FD000883009F04AC08FE00E940D0E8EE00E940A
:101FE0000D0E182F61E08EE00E94F00D0091490661
:101FF000809149068C7F8093490669E082E00E94C7
:10200000F00DCE0105960E949D098091480682FD43
:1020100020C0CE0101960E949D0989819A81AB81E1
:10202000BC814D815E816F817885841B950BA60BE9
:10203000B70B8B3F9105A105B10538F38AE10E94EA
:102040000D0E682F80FF02C06E7F01C061608AE1C3
:10205000D6CF8FE00E940D0E81E080934C06009356
:102060004906612F8EE00E94F00D2896CDBFDEBF9D
:10207000DF91CF911F910F910895CF93C82F209199
:1020800058292F30A1F510925C2988E396E10E942F
:10209000F00781E080934C0680914906836080932D
:1020A00049068FB7F894789498E0909346069091FB
:1020B0005C299923E1F38FBF8FE00E940D0E82E22D
:1020C00096E10E94F00768E08EE00E94F00D21E0AA
:1020D00042E064E08DE00E94840E88E080935829FD
:1020E000C83009F4E6C0C33009F0E5C0E2C090E0B2
:1020F000FC013397E731F10508F0D1C08827EC5097
:10210000FF4F8F4F0C94674B63E082E00E94F00D0D
:1021100020E042E064E08DE00E94840E8FE00E94A7
:102120000D0E20E140E06FEF8EE00E94840E20E172
:1021300040E06FEF8EE00E94840E8FE0809358297C
:10214000000000000000000000000000000000008F
:10215000000000000000000000000000000000007F
:10216000000000000000000000000000000000006F
:10217000000000000000000000000000000000005F
:1021800088E08093450683E290E00E94A90980914F
:1021900058299EC080915829883009F480C068E091
:1021A0005BC0283009F47BC063E056C08091582999
:1021B0008830C1F020F4863009F071C005C0863146
:1021C00019F0893109F06BC069E046C08091582947
:1021D000883041F0893009F462C064E082E00E94F6
:1021E000F00D5DC00E94DA0F5AC0809158298930E5
:1021F00061F030F4883009F052C00E94DA0F05C057
:10220000863119F0893109F04AC066E025C0809115
:102210005829883059F020F4863009F040C008C0B1
:10222000893031F0893109F03AC002C00E94DA0FDA
:1022300066E112C080915829883059F020F4863028
:1022400009F02DC008C0893031F0863109F027C06F
:1022500002C00E94DA0F69E182E00E94F00D0000E6
:10226000000000000000000000000000000000006E
:10227000000000000000000000000000000000005E
:10228000000000000000000000000000000000004E
:10229000000000000000000000000000000040E01E
:1022A0006FE181E00E94740E809358298F31B9F359
:1022B0000FC088E00DC08C2F90E0FC013497E63110
:1022C000F10568F78827E55FFE4F8F4F0C94674B49
:1022D000CF910895809133298823E1F080915D2981
:1022E000811118C08091C1289091C228892B39F49E
:1022F00086E90E941C0F8093C1289093C228809188
:10230000C1289091C228892B29F01092332986E1A7
:102310000E943D1080913829882351F060E070E0E0
:1023200084E399E20E94BB0F009711F00E94EC1128
:1023300080915D29823011F40C9423120895EF925C
:10234000FF920F931F93CF93DF931F92CDB7DEB70A
:10235000E091C128F091C228309731F461E0CE01BC
:1023600001960E942C0E30C0E080F18041E0BE0159
:102370006F5F7F4F80E00E94C50E698167FD24C0BA
:102380006D5F06E910E0061B11090E0D1F1DC80147
:102390000E942C0EF701078310876091C12870916D
:1023A000C22884E399E20E94A00F86E90E941C0FD4
:1023B0008093C1289093C228892B31F489E00E9430
:1023C0003D1081E0809333290F90DF91CF911F91D1
:1023D0000F91FF90EF9008950F931F93CF93DF938A
:1023E0008C01FC01C081D181AF81B8858C91809333
:1023F0005929E82FF0E03196EA0FFB1F20819181E7
:10240000903220F4911103C091E001C09FE1229528
:102410002695269523708FEF289F90011124929F77
:10242000A001939F500D1124CA016DE570E00E9438
:102430001D4B608309831A83CE01DF91CF911F91D9
:102440000F910C94293310925D29E091C328E83054
:1024500028F4F0E0E05DFF4D808101C085E86091E7
:10246000392970913A290C944E35CF93DF93EC01C2
:10247000662319F02091572901C020E044E060EF65
:102480008CE20E94840EC230D10510F427E002C015
:1024900020914F2941E06EE08CE20E94840E89E198
:1024A0000E943D108931D9F7809149068C7F809335
:1024B0004906219759F480915929833118F087E50D
:1024C00092E002C087E990E00E94A90988E0809329
:1024D00045060000000000008093460680915A29BE
:1024E00090915B29FC01608161500E945A0E81E04D
:1024F00080935D2980914906836080934906DF912E
:10250000CF9108959B0150915D29511113C0809383
:10251000392990933A29FC018781908580935A2923
:1025200090935B29892B41F0642FC9010E943512D9
:1025300080E0089586E8089588EE0895882311F0D4
:1025400087E005C045E060EE82E00E94740E809353
:10255000C32882E080935D298091C1289091C22890
:10256000892B39F489E00E943D1081E08093332962
:10257000089586E10C943D10982F85FD02C09F734D
:1025800003C091959F719195E0EFF4E080E0249174
:10259000921724F029173CF4815008958F5F3196EB
:1025A0008031A9F780E008950F931F93CF93609136
:1025B000492982E20E94F00D60914A2983E20E943B
:1025C000F00D0BE319E2C4E2F80161918F018C2F49
:1025D0000E94F00DCF5FCC32B9F76091472980E2BD
:1025E0000E94F00D6091482981E20E94F00D209137
:1025F0004D2945E060E688E00E94840E2091502934
:1026000040E06FE08FE20E94840E2091512943E068
:1026100068E08EE20E94840E2091562944E060EF2B
:102620008FE20E94840E20914E2940E06FE188E005
:102630000E94840E809152290E94BC12282F40E0F3
:102640006FE085E0CF911F910F910C94840E982F2D
:1026500085FD02C09F7303C091959F719195E0EF36
:10266000F4E0249129172CF0EFEFF4E02491921775
:102670006CF48491803E3CF080323CF487FF06C0CD
:102680008F71806203C080E201C08FE1806808958D
:10269000CF93DF93CBE3D9E284E08C8B83E08D8B07
:1026A0002FEF3FEF2E873F872C873D879BE09B8B4B
:1026B00040E058EF6FEF77E0488759876A877B875C
:1026C000188E2AE031E0288B398B9AE0998F92E0BE
:1026D0009A8F95E09B8F8C8F84E80E9427138F8BB5
:1026E00081E08A8B1E8ADF91CF9108950F931F930B
:1026F000CF93DF93EB018E3431F0893541F488813B
:1027000080935729CAC0888180934F29C6C02091E1
:1027100058292F3009F4C3C08B3009F4B6C078F4BF
:10272000823009F493C020F4882309F456C0B9C05C
:10273000833009F499C0843009F479C0B2C083357C
:10274000E1F198F48F3499F1803509F0AAC08881BD
:102750009981682F8093492990934A2982E20E94A7
:10276000F00D60914A2983E235C0873509F467C0CE
:10277000803F09F096C0888180933B2989818093AE
:102780003C298A8180933D298B8180933E298C81CD
:1027900080933F298D81809340298E8180934129A8
:1027A0008F81809342290BE319E2C4E264C028813F
:1027B0002093502940E06FE047C088819981682FBD
:1027C000809347299093482980E20E94F00D609100
:1027D000482981E20E94F00D60C080915D2981113D
:1027E00062C080E098EFAFEFB7E0088004C0B69514
:1027F000A795979587950A94D2F780FF56C0283001
:1028000039F088E00E943D108830D9F716E101C008
:1028100018E0288120934E2940E06FE188E00E9473
:10282000840E1830D1F186E10E943D1036C08091AF
:102830005D29811138C08881811137C02EC028815F
:102840002093562944E060EF8FE225C08881809371
:1028500052290E942713809352290E94BC12282FCC
:1028600040E06FE085E017C0288120934D2945E0C6
:1028700060E688E010C0F80161918F018C2F0E9402
:10288000F00DCF5FCC32B9F708C0288120935129D1
:1028900043E068E08EE20E94840E80E007C081E899
:1028A00005C084EF03C086E801C088EEDF91CF91B8
:1028B0001F910F9108951F93CF93DF931F92CDB770
:1028C000DEB79E012F5F3F4F41E050E065E170E0D1
:1028D00081E00E94560888E08093460682ED90E0F1
:1028E0000E94A90911E01093460681E090E00E9441
:1028F000A909109345061BE084E690E00E94A9090F
:1029000040E06FE181E00E94740E115069F0883060
:1029100099F7809358292981222341F040E06FE004
:1029200082E10E94840E02C085E801C080E00F9021
:10293000DF91CF911F910895CF9320E043E068E0AD
:1029400083E00E94840E21E040E067E083E00E9483
:10295000840E0E94F54BC92F682F8DE20E94F00D66
:102960002C2F40E067E08EE20E94840E21E046E0DA
:1029700060EC8EE20E94840E21E045E060E28EE28F
:102980000E94840E21E047E060E88CE00E94840E03
:1029900068E08EE00E94F00D6FEF86E10E94F00D7E
:1029A00020E040E063E08DE00E94840E23E040E000
:1029B0006FE08AE00E94840E21E043E068E08DE051
:1029C0000E94840E21E042E064E08DE0CF910C94FF
:1029D000840EFF920F931F93CF93DF9386E10E94A3
:1029E0000D0E082F61EC86E10E94F00DF090490673
:1029F000809149068C7F8093490686E00E943D10B5
:102A00008630D9F720E047E060E885E10E94840E37
:102A100018E0C0E0D0E045E060E686E00E94740E79
:102A2000CC0FDD1FCC0FDD1FC82B00000000000005
:102A30000000000000000000000000000000000096
:102A40000000000000000000000000000000000086
:102A50000000000000000000000000000000000076
:102A600000000000000000000000115009F0D3CF6A
:102A700083E00E943D108FE00E940D0E81E0809364
:102A80004C06F0924906CE010E94F94B602F86E178
:102A9000DF91CF911F910F91FF900C94F00DCF9388
:102AA000DF93D82F0E945B14C82F811129C00E9488
:102AB000E9140E949C14D1110E9448130E94D41260
:102AC00010925D291092332980913829882359F07A
:102AD00060E070E084E399E20E94BB0F0097A1F3ED
:102AE0000E94220FF1CF82E296E10E94F00781E07E
:102AF00080934C068091490683608093490601C00B
:102B0000C5E88C2FDF91CF910895EF92FF920F933C
:102B10001F93CF930E943F0881118CC0C1E0C093E6
:102B2000450688E0809346068AE491E00E94A90960
:102B3000C093460681E090E00E94A909C093450633
:102B40001AE084E690E00E94A9098CE10E940D0E33
:102B5000C82F8B3019F01150A1F76CC068E082E0EB
:102B60000E94F00D84E690E00E94A90940E06FE128
:102B700081E00E94740EC15009F45CC0883091F766
:102B8000809358292BE339E248E050E060E070E0A0
:102B900081E00E9456080E945B14C82F81114AC030
:102BA0000E94E9140E949C140E9448130E94D412AF
:102BB00010925D291092332983E4E82E89E2F82EE1
:102BC00020913B2930913C2940913D2950913E294B
:102BD00060913F297091402980914129909142292B
:102BE000AFEF0E947A4BADEF0E948F4B61F058F02F
:102BF0000BE319E20E94F54BF80181938F01EE1669
:102C0000FF06C1F7DDCF82E296E10E94F0078091D6
:102C100049068360809349060E94FD0E86E90E9462
:102C20001C0F8093C1289093C22884E399E20E94EC
:102C3000990F01C0C5E88C2FCF911F910F91FF9084
:102C4000EF9008958FE00E940D0E83FF10C09091C9
:102C50005D29913041F486FF02C081E001C080E02F
:102C60000E949E1202C00E949F110C9481440895FC
:102C70008FE00E940D0E84FF03C081E080935C29E9
:102C80000895809158298F30A9F080915D29811194
:102C90000FC01092332988E00E943D108830D9F788
:102CA00080E00E9493098FE00E943D108F3021F058
:102CB00086E8089581E8089580E008958091582974
:102CC0008F3051F488E00E943D10883039F481E063
:102CD0000E94930980E0089582E8089585E80895A8
:102CE00090915D29911117C0883031F40E943D10F8
:102CF0001092332988E008958091C1289091C228CC
:102D0000892B21F086E10E943D1003C081E0809371
:102D1000332986E0089586E808958EE599E20E94B9
:102D2000990F0C947D26CF930E941122C82F60E04A
:102D300070E08EE599E20E94BB0F009719F00E94A7
:102D4000FB21C1E00E94F9300E946A110E945408E0
:102D50008C2FCF9108958F929F92AF92BF92CF9276
:102D6000DF92EF92FF920F931F93CF93DF9347373A
:102D700010F080E03DC05901142F4B01F82E86E978
:102D80000E941C0F6C010097A1F3FC01C081D1814E
:102D900083E08883F982F40180818A8321813281F2
:102DA0002B833C838250823080F41D821E821F82DE
:102DB000188619861A861B861C86339688E0DE01E3
:102DC000159601900D928A95E1F70D87EE861F8783
:102DD000412F50E0CE01841B950BB5018C569F4FBF
:102DE0000E94E74CB60183E799E20E94A00F81E0C0
:102DF000DF91CF911F910F91FF90EF90DF90CF90D7
:102E0000BF90AF909F908F900895DF92EF92FF92C6
:102E10000F931F93CF93DF93D82EF62E8A01E22EC5
:102E200086E90E941C0F0097F1F0FC01C081D1815E
:102E300021E02883D982F80120812B8321813281EE
:102E40002C833D83DE011696339628E001900D9287
:102E50002A95E1F7EE86FA82BC0183E799E20E94A7
:102E6000A00F81E001C080E0DF91CF911F910F9111
:102E7000FF90EF90DF9008959F92AF92BF92CF9214
:102E8000DF92EF92FF920F931F93CF93DF93922ED7
:102E9000A32EB42EC52ED62EF72ED82FC92F86E9F5
:102EA0000E941C0F0097B9F0DC01ED91FC9122E02B
:102EB00020839182A282B382C482D582F682D78394
:102EC000C08701871287E386BC0183E799E20E94ED
:102ED000A00F81E001C080E0DF91CF911F910F91A1
:102EE000FF90EF90DF90CF90BF90AF909F900895AC
:102EF000CF93C82F86E90E941C0F009769F0DC0170
:102F0000ED91FC9129E02083C183BC0183E799E224
:102F10000E94A00F81E001C080E0CF910895EF9260
:102F2000FF921F93CF93DF93182F7B0186E90E94B6
:102F30001C0FEC01892BB1F0812F0E947E28E881C3
:102F4000F98196E090831183482F50E0B701CF01BB
:102F500002960E94E74CBE0183E799E20E94A00F0F
:102F600081E001C080E0DF91CF911F91FF90EF9051
:102F70000895CF92DF92EF92FF920F93CF93DF935A
:102F8000D82F6A017B01C22F86E90E941C0F00978F
:102F900099F0DC01ED91FC912BE02083D183C2827A
:102FA000D382E482F582C6830783BC0183E799E27A
:102FB0000E94A00F81E001C080E0DF91CF910F91CE
:102FC000FF90EF90DF90CF9008958F929F92AF92F5
:102FD000CF92EF920F931F93CF93DF934C01162F55
:102FE000C42FD22F86E90E941C0F0097A9F0DC01A4
:102FF000ED91FC912DE02083818292821383D58311
:103000000683E782C086A186C483BC0183E799E278
:103010000E94A00F81E001C080E0DF91CF911F915D
:103020000F91EF90CF90AF909F908F900895CF9396
:10303000DF93EC0186E90E941C0F009741F1FC012F
:10304000A081B1812EE02C93288111962C931197A9
:1030500029813A8112962D933C931397288122302F
:1030600039F42B813C8114962D933C93159708C01D
:103070001496FE01339628E001900D922A95E1F70F
:10308000BC0183E799E20E94A00F81E001C080E0CB
:10309000DF91CF910895DC01ED91FC9124E1208333
:1030A000638341835283BC018EE599E20C94A00FA7
:1030B0000F931F93CF93DF931F921F92CDB7DEB76D
:1030C0004FEF5FEF6BEE80917B2990917C290E94FE
:1030D0004B18109272290FEF1FEF09831A83BE015C
:1030E0006F5F7F4F80E50E946228E1EBF9E2028783
:1030F0001387108211821282138214821582168223
:1031000017820E9472260F900F90DF91CF911F912E
:103110000F910895DF92EF92FF920F931F93CF9339
:10312000DF93CDB7DEB72F97CDBFDEBF7C01DC01CB
:10313000ED91FC918FE0DE01119601900D928A9540
:10314000E1F7E0927B29F0927C298C81823019F49E
:103150008F8198851AC08F818093B129888580934B
:10316000B22989858093B3298A858093B4298B8578
:103170008093B5298C858093B6298D858093B72956
:103180008E858093B8298EEF9FEF8093BB29909313
:10319000BC29BE016B5F7F4F80E50E9462280E94C0
:1031A000A126F7010081118181E0D8018C9311964D
:1031B000ED92FC921297F801EE56FF4F8083319604
:1031C0008F858083399780913B29808380913C292A
:1031D000818380913D29828380913E2983838091E0
:1031E0003F2984838091402985838091412986836A
:1031F00080914229878332978FEF9FEF808391835D
:103200008C81823059F432978091BB299091BC29EE
:103210008083918323E238EC85E11EC0F801E058F9
:10322000FF4F8091B12980838091B2298183809161
:10323000B32982838091B42983838091B5298483C3
:103240008091B62985838091B72986838091B8299A
:10325000878323E23CEC8BE14091492950914A2934
:10326000DF0112974D935C9311979091C72941E02C
:10327000490F4093C72911979C9312972D933C9324
:1032800036978083D8011796ED93FC931897BE016B
:103290006D5F7F4F84E00E946228D82EBE016E5F72
:1032A0007F4F80E00E946228D1100EC081110CC0B7
:1032B00041E062E070E0C8010E948212811104C006
:1032C00081E08093FC2908C04FEF5FEF61EEC701FA
:1032D0000E944B180E9472262F96CDBFDEBFDF9151
:1032E000CF911F910F91FF90EF90DF900895209163
:1032F000C129211102C00C94220FDC01ED91FC9137
:10330000B091E729A091E8297091E9296091EA2913
:103310005091EB294091EC293091ED292091EE2933
:10332000B183A28373836483558346833783208765
:103330002091F229218723E12083BC018EE599E2C7
:103340000C94A00FBF92CF92DF92EF92FF920F9357
:103350001F93CF93DF93BC019091FB299250923041
:1033600060F0CB01DF91CF911F910F91FF90EF9013
:10337000DF90CF90BF900C94220FFB01C081D181D0
:103380001981BA81AB815C814D813E812F81B884E6
:10339000C984DA840B8582E088837E01F0E9EF0E30
:1033A000F11CF70180837E01F1E9EF0EF11CF701BA
:1033B000C082D182329600833B9780913B298083E3
:1033C00080913C29818380913D29828380913E298F
:1033D000838380913F2984838091402985838091D4
:1033E0004129868380914229878338971083B1834E
:1033F000A2835383448335832683B7823297809197
:10340000492990914A29808391838091C72991E02D
:10341000980F9093C72931978083329783E69CEC6D
:103420008083918331978BE18083EF83F8871E82BD
:1034300084E699E20E94A00F8091B9299091BA295F
:103440008C839D8382E00E94D30981110BC0DF91A0
:10345000CF911F910F91FF90EF90DF90CF90BF9091
:103460000C94BB23DF91CF911F910F91FF90EF90B0
:10347000DF90CF90BF900895EF92FF921F93CF936C
:10348000DF931F921F92CDB7DEB71091F4290E94EF
:10349000220F111136C062EF79E283E50E946228A3
:1034A0004091F2295091F3298091E7298093B12925
:1034B0008091E8298093B2298091E9298093B329EA
:1034C0008091EA298093B4298091EB298093B529D2
:1034D0008091EC298093B6298091ED298093B729BA
:1034E0008091EE298093B82981E08093FB29109286
:1034F000722980917929833039F582E08093792986
:1035000023C010927229EE24EA94FE2CE982FA82FA
:10351000BE016F5F7F4F80E50E946228E092BB2969
:10352000F092BC291092B1291092B2291092B329BD
:103530001092B4291092B5291092B6291092B72989
:103540001092B8294FEF5FEF612F80917B29909106
:103550007C290E944B180E9472260F900F90DF91D9
:10356000CF911F91FF90EF900895EF92FF920F93EC
:103570001F93CF93DF93C091BF29D091C02900E062
:1035800010E020E030E040E061E080E00E94F01FC9
:1035900081110FC04FEF5FEF61EE80917B29909119
:1035A0007C29DF91CF911F910F91FF90EF900C94A8
:1035B0004B18AE0160E070E084E0440F551F661FB9
:1035C000771F8A95D1F7E12CF12C08E518E120E06E
:1035D00081E00E94570A882351F080E090E0DF915B
:1035E000CF911F910F91FF90EF900C945818DF919D
:1035F000CF911F910F91FF90EF900895FC01909152
:10360000C4289730E0F4A781B08512968C91129768
:10361000869586958370823091F4E091C528F0916B
:10362000C6283297E093C528F093C62816962D91A8
:103630003C911797208331839F5F9093C42880E04B
:103640000895FC019091C4289730D8F40780F08544
:10365000E02D8281869586958370833091F4A091C8
:10366000C528B091C6281897A093C528B093C6283E
:10367000369688E001900D928A95E1F79F5F9093CE
:10368000C42880E00895CF92DF92EF92FF920F93CB
:103690001F93CF93DF9300D01F92CDB7DEB7DB012E
:1036A000ED90FC90F701618372838AE0808387014B
:1036B0000C561F4F8091C229882369F0482F50E093
:1036C000041B150B3DE0D32ED80E6DE779E2C8013F
:1036D0000E94E74C02C02DE0D22E809168298823F9
:1036E00009F43FC00093C5281093C6281092C4283F
:1036F00081E29BE189839A83BE016F5F7F4F84E6FD
:1037000099E20E94C00FC090C4281092C4288EEF86
:103710009AE189839A83BE016F5F7F4F84E699E2C5
:103720000E94C00FE091C428A091C528B091C6287E
:1037300011978C2D90E09C0194E0220F331F9A95F5
:10374000E1F72E2B2C93F4E0CF9EE00D1124EE0F29
:10375000E093C428DE0EF0E0E095F095E00FF11F55
:1037600002C0F8011292DF0111971C928091FB298F
:10377000833019F48FEF9FE402C08FEF9FE0209118
:10378000C12921119068DF0113978D939C9380913B
:103790004729909148298E3F2FEF9207F1F43B97EC
:1037A00086E0D80E70913B2960913C2950913D29CB
:1037B00040913E2930913F29209140299091412903
:1037C00080914229708361835283438334832583AC
:1037D0009683878380E090EC05C035978083918342
:1037E00080E090E82091492930914A29DF01129721
:1037F0002D933C9311972091C32931E0320F3093E0
:10380000C32911972C9312978D939C933697D0824E
:10381000D7011796ED93FC93189740E062E070E0B3
:10382000C7010E94821281E08093FC292496CDBFBB
:10383000DEBFDF91CF911F910F91FF90EF90DF904E
:10384000CF900895BC0180E00C94431BCF92DF928F
:10385000EF920F93CF93DF93CDB7DEB76697CDBFCF
:10386000DEBF6C01DC01ED91FC9181818C8782814E
:1038700093818D879E8774816581568147813085CC
:103880002185928583857F87688B598B4A8B3B8BFB
:103890002C8B9D8B8E8B84858983858596858A83E9
:1038A0009B8387858C8380898D8381898E838289A0
:1038B0008F83838988878489898785898A87868990
:1038C0008B87228D338DE08C0789418DBE016F5F20
:1038D0007F4FCE010C960E942805C6010E94220F40
:1038E0006696CDBFDEBFDF91CF910F91EF90DF9055
:1038F000CF900895CF93DF93EC01E881F981628145
:1039000081810E944006CE01DF91CF910C94220F5D
:10391000CF93DF93EC01E881F9816381818192810A
:103920000E947B05CE01DF91CF910C94220F0F9363
:10393000CF93DF93EC01E881F981218132814381CA
:103940005481658176810185878190850E948704F5
:10395000CE01DF91CF910F910C94220F0F931F9303
:10396000CF93DF93CDB7DEB76697CDBFDEBF8C01B7
:10397000DC01ED91FC91818192818D879E8723816D
:103980002C87B481A58176816781508541853285F8
:103990002385BF87A88B798B6A8B5B8B4C8B3D8B88
:1039A0002E8B8A839B838485898385858C838685FA
:1039B0008D8387858E8380898F838189888782899B
:1039C000898783898A8784898B874589BE016F5F50
:1039D0007F4FCE010C960E942105C8010E94220F44
:1039E0006696CDBFDEBFDF91CF911F910F910895F5
:1039F000CF93DF93EC01E881F98181810E948F37B9
:103A0000CE01DF91CF910C94220FCF93DF93EC0185
:103A1000E881F98181810E944B03CE01DF91CF9132
:103A20000C94220FCF92DF92EF920F931F93CF93BC
:103A3000DF93EC01E881F9816F0189E0C80ED11CA8
:103A40000481158126813781E084438162818181EF
:103A50000E947F03CE01DF91CF911F910F91EF90D4
:103A6000DF90CF900C94220FCF93DF93EC01E8818D
:103A7000F981628181810E94E003CE01DF91CF91C3
:103A80000C94220FCF93DF93EC01E881F9818181BF
:103A90000E941204CE01DF91CF910C94220F0F935C
:103AA0001F93CF93DF93FC014091D4295091D529E6
:103AB000BA0164E0769F612D77271124262F952F78
:103AC00096959695937009F441C0A081B181A09319
:103AD000DA29B093DB299230C9F41092DC291092D4
:103AE000DD291092DE291092DF291092E029109230
:103AF000E1291092E2291092E329A281B381A093D7
:103B0000DC29B093DD29349684E021C0933019F08C
:103B1000329682E01CC002811381D481C581B681B6
:103B2000A781308581850093DC291093DD29D0930E
:103B3000DE29C093DF29B093E029A093E1293093D7
:103B4000E2298093E3293A968AE001C080E02223AB
:103B500009F447C046FD08C0419151914093E529C1
:103B60005093E6298E5F08C04091DA295091DB29F5
:103B70004093E5295093E6292230C1F41092E729B9
:103B80001092E8291092E9291092EA291092EB2963
:103B90001092EC291092ED291092EE2920813181AA
:103BA0002093E7293093E8298E5F1BC02330C9F4A6
:103BB000D081C181B281A381548145813681278121
:103BC000D093E729C093E829B093E929A093EA2983
:103BD0005093EB294093EC293093ED292093EE2963
:103BE000885F2091D7292550281B2093F1296093C5
:103BF000E4299093D929DF91CF911F910F910895D6
:103C0000EF92FF920F931F93CF93DF93EC01A88164
:103C1000B9811796ED91FC91189780818093D729EF
:103C2000E80FF11D81818093F0291796ED91FC91A9
:103C30001897018112810093D4291093D5297F010F
:103C400084E0E80EF11C83818093D829C7010E948B
:103C50004F1D03FDB1C0F701E80FF11D802F8770E4
:103C60008093D629833021F490819093EF295FC00F
:103C7000813009F44BC020F0833009F09DC057C05B
:103C8000208131812093F2293093F32992819093FE
:103C9000F429977011F09C5F01C093E041E0490F57
:103CA000DF01A90FB11D2C912093F529922F977058
:103CB000207730E054E0359527955A95E1F7522F5B
:103CC000911102C0222389F0BF01640F711D60931E
:103CD000F6297093F729992311F0990F490F55236D
:103CE00021F098E0299F400D11249091F129491766
:103CF00050F4941B9093F829E40FF11DE093F929F7
:103D0000F093FA294AC01092F82947C09091F129FE
:103D1000992351F0963718F096E79093F129E093A4
:103D2000F229F093F32939C01092F12936C090910D
:103D3000EF29943091F170F4913089F09230E1F5EF
:103D4000218132812093F2293093F329938190933A
:103D5000F42923C0973009F1983029F02DC09181C2
:103D60009093F2291AC0218132812093F229309355
:103D7000F329238134812093F4293093F529958107
:103D80009093F629268137812093F7293093F829DB
:103D900014FF03C090859093F9299091FC299923F1
:103DA00011F0833091F090917229913009F48DC017
:103DB000E8F0943008F468C0CE01DF91CF911F91F4
:103DC0000F91FF90EF900C94220F9091EF29943077
:103DD00011F0973041F7BE018DEC99E2DF91CF9160
:103DE0001F910F91FF90EF900C94A00F9091782964
:103DF00091113AC09091FB29933078F09330E1F61D
:103E0000813009F478C08330B9F68091EF2984308D
:103E100069F0873009F047C01EC0813009F46BC0DB
:103E2000833051F68091EF29843081F480916829A4
:103E3000882349F0CE01DF91CF911F910F91FF9020
:103E4000EF900C948E210E94CC20B6CF873059F58C
:103E5000923009F0B1CFCE01DF91CF911F910F9138
:103E6000FF90EF900C94221C923019F0943009F0DE
:103E7000A3CF8111A1CFCE01DF91CF911F910F91DF
:103E8000FF90EF900C9435290E9414298091D62937
:103E9000813089F1833009F08FCF8091EF29843010
:103EA00029F2873061F0813009F086CFCE01DF91B1
:103EB000CF911F910F91FF90EF900C947719809103
:103EC000FB29823009F078CFC6CF833089F4809106
:103ED000EF29823009F070CF81E00E94690BCE019A
:103EE000DF91CF911F910F91FF90EF900C943C1AAE
:103EF000813009F061CFCE01DF91CF911F910F91F9
:103F0000FF90EF900C947A22FC0110826181728103
:103F10006115710521F08DEC99E20C94A00F0895C4
:103F2000DC0116962C911697211113C01796ED916E
:103F3000FC9118978281869586958370823049F42A
:103F400081E0DB014D915C91268137814217530757
:103F500009F080E00895AF92BF92CF92DF92EF9286
:103F6000FF920F931F93CF93DF93DB01EC012E8120
:103F7000211129C0EF81F88582818695869583700D
:103F8000833009F5C1E02C9111963C91119712965E
:103F90004C91129713965C91139714966C91149709
:103FA00015967C911597A680B780C084D184E28451
:103FB000F3840485158516968C91169717969C9117
:103FC0000E94864B09F0C0E08C2FDF91CF911F91AA
:103FD0000F91FF90EF90DF90CF90BF90AF9008953A
:103FE000BF92CF92DF92EF92FF920F931F93CF93E6
:103FF000DF93D82FC62FB42E690186E90E941C0FCB
:104000007C01009709F4BDC0FC0180819181DD2312
:1040100011F024E001C02BE0FC012083FC01E182CF
:10402000F28224E0ED56FF4F208320914729309102
:104030004829A9014E5F5F4F4230510510F0CC2353
:10404000F9F0EC01C557DF4F20913B2928832091DF
:104050003C29298320913D292A8320913E292B83C5
:1040600020913F292C83209140292D8320914129A3
:104070002E83209142292F8343E250EC22E108C095
:10408000EC01CF56DF4F2883398343E250E82CE020
:10409000BB2061F06091492970914A29601771072E
:1040A00029F02E5F7A936A9330E002C0406431E0D9
:1040B000F2E0BF1205C05860F6016081718117C03F
:1040C000F3E0BF120BC05C6028972A5F68E0F6013E
:1040D000DE0101900D926A95E1F727C06091BB293E
:1040E0007091BC296E3FEFEF7E0721F058607A9304
:1040F0006A931BC05C6028972A5FC090B129D0905A
:10410000B229B091B329A091B429F091B529E091D9
:10411000B6297091B7296091B829C882D982BA832B
:10412000AB83FC83ED837E836F83FE013297332361
:1041300039F06091492970914A296083718302C0E6
:10414000008311833091C72961E0630F6093C72911
:10415000FE0133973083329740835183269728831B
:10416000FC01C783D08741E062E070E00E948212C8
:10417000811104C081E08093FC2904C0C7010E9422
:10418000220F80E0DF91CF911F910F91FF90EF9070
:10419000DF90CF90BF900895CF92DF92FF920F9360
:1041A0001F93CF93DF9386E90E941C0FEC01892BAC
:1041B00009F4ACC0C880D9808CE0D6018C931196EC
:1041C000CD93DC93129716961C928091472990917B
:1041D00048299C012E5F3F4FF60122303105F0F453
:1041E000E457FF4F80913B29808380913C29818354
:1041F00080913D29828380913E29838380913F294C
:104200008483809140298583809141298683809190
:104210004229878380E090EC21E107C0EE56FF4FF2
:104220008083918380E090E82BE040914929509170
:104230004A296091E5297091E6294617570711F43C
:10424000806403C02E5F529342933091E42933304F
:10425000E9F438972A5FF090E7290091E829109156
:10426000E9297091EA296091EB295091EC2940915C
:10427000ED293091EE29F0820183128373836483E8
:1042800055834683378381609C6008C04091E7294D
:104290005091E82952934293816098606091E5299A
:1042A0007091E629AF0142505109DA016D937C9378
:1042B0003091C72941E0430F4093C729AF014350D4
:1042C0005109DA013C9342505109DA018D939C93D4
:1042D00036972083D6011796ED93FC93189740E00C
:1042E00061E070E0888199810E948212811104C08E
:1042F00081E08093FC290AC0CE01DF91CF911F910C
:104300000F91FF90DF90CF900C94220FDF91CF910F
:104310001F910F91FF90DF90CF9008950F931F93FF
:10432000CF93DF9300D01F92CDB7DEB70E94220F4C
:104330008091FB29823008F456C08091E4298230B4
:1043400019F480E99FE105C0833009F04CC08BEA85
:104350009FE189839A8387EE99E28B839C83BE01D8
:104360006F5F7F4F84E699E20E94C00F009719F4B7
:104370000E94CC2038C0DC010D911C91D801179609
:10438000ED91FC9118974091E5295091E6292481FF
:1043900035814217530761F721E016962C93169743
:1043A00011968D939C931297BE016F5F7F4F84E6A9
:1043B00099E20E94C00F892B41F0D8011796ED9128
:1043C000FC91189781818061818340E061E070E019
:1043D000C8010E948212811104C081E08093FC29EF
:1043E00002C0F80116822496CDBFDEBFDF91CF91C7
:1043F0001F910F910895DC01ED91FC91E081E43271
:1044000070F4F0E0EE0FFF1FE050FB4F2591349168
:104410002115310511F0F90119940C94220F0C9417
:10442000E631CF938091FC29882311F0C0E00FC0C2
:10443000809177298823D1F360E070E083E799E2E7
:104440000E94BB0F009791F30E94FB21C1E0809175
:10445000D129882359F060E070E08DEC99E20E9448
:10446000BB0F009719F00E94FB21C1E08C2FCF9168
:1044700008958091FC29811119C0809162298111D0
:1044800015C080917729811111C08091D1298111A6
:104490000DC08091022A811109C0809138298111B3
:1044A00005C081E0909158299F3009F080E008957F
:1044B000FC018681811105C08481958101978483E7
:1044C000958380E00895FC018681811105C081E01B
:1044D00024813581232B09F080E00895DC01ED91E2
:1044E000FC9120E1208341836283BC018EE599E247
:1044F0000C94A00F9F92AF92BF92CF92DF92EF9257
:10450000FF920F931F93CF93DF93CDB7DEB728971A
:10451000CDBFDEBFDC018091F129811104C0CD0146
:104520000E94220F17C1ED91FC9111979090D8290C
:10453000908E8091E42981832091E5293091E629AC
:10454000228333839EEF980F923050F514821582A8
:10455000168217821086118612861386823039F4ED
:104560008091E7299091E8298483958323C07091F5
:10457000E7296091E8295091E9294091EA29309191
:10458000EB292091EC299091ED298091EE297483FB
:1045900065835683478330872187928783870AC044
:1045A0001282138214821582168217821086118657
:1045B000128613868091632998121FC02481358149
:1045C0004681578160857185A0906929B0906A29DC
:1045D000C0906B29D0906C29E0906D29F0906E29E5
:1045E00000916F2910917029828593850E94864BD6
:1045F00021F4CD010E94220F64C09092632984812E
:1046000080936929858180936A29868180936B29AB
:10461000878180936C29808580936D298185809323
:104620006E29828580936F2983858093702980917C
:10463000D92984871786108A118A128A138A148AC4
:10464000158A168A2091DA293091DB292587368749
:104650008330C9F47091DC296091DD295091DE2905
:104660004091DF293091E0292091E1299091E229C0
:104670008091E3297787608B518B428B338B248B1E
:10468000958B868B0BC0823039F48091DC29909118
:10469000DD298787908B02C0158616868091F029C8
:1046A000878B8091F129818F8091F2299091F32954
:1046B000828F938F81E18083BD018EE599E20E9414
:1046C000A00F8091D42984FF45C08091FB298330BD
:1046D00009F442C08091E429823079F48091E7297D
:1046E0009091E82989839A830091E5291091E62920
:1046F0009E012F5F3F4F42E028C0833009F5809133
:10470000E72989838091E8298A838091E9298B832D
:104710008091EA298C838091EB298D838091EC290B
:104720008E838091ED298F838091EE298887009177
:10473000E5291091E6299E012F5F3F4F43E005C018
:1047400000E010E020E030E040E060E080E00E9427
:10475000F01F02C00E9472262896CDBFDEBFDF91F7
:10476000CF911F910F91FF90EF90DF90CF90BF906E
:10477000AF909F900895EF92FF920F931F93E12CBB
:10478000F12C0CE415E220E040E050EE61E070E036
:1047900082E00E94570A882341F080E090E01F9158
:1047A0000F91FF90EF900C944C251F910F91FF906B
:1047B000EF9008952F923F924F925F926F927F9267
:1047C0008F929F92AF92BF92CF92DF92EF92FF9221
:1047D0000F931F93CF93DF93CDB7DEB72597CDBF50
:1047E000DEBF8C839D83DC010D90BC91A02DAA833C
:1047F000BB831D961C911D971E966C91B62FB470AD
:10480000B98362FD0BC080917229811104C080912F
:104810007829882319F0412F61EE0FC1EA81FB81CD
:1048200051814281E380F48005817681D780C08404
:10483000B184A2849384848487859DE090831383CC
:104840001682E4E9F0E0E81BF1092A813B81E20FDE
:10485000F31F523049F497E0980F20914729309187
:1048600048293293229320C0533019F095E0980FD5
:104870001BC038979DE0980F20903B2930903C2931
:1048800040903D2950903E2960903F2970904029EA
:1048900030914129209142292082318242825382E3
:1048A00064827582368327832091492930914A2971
:1048B0002E153F0529F4552341F041110BC002C0CC
:1048C000552319F09E5F3293229320E030E0442379
:1048D000C1F002C020E430E0423031F49E5FC02ECF
:1048E000D72ED292C2920AC03897985F0083718304
:1048F000D282C382B482A582968287829E5FF29220
:10490000E2927091C72901E0070F0093C7297F0148
:10491000A1E0EA1AF108D7017C9360FD02C0216092
:1049200001C02162873608F030617F01B3E0EB1AE5
:10493000F108C52ED12C80E4C89ED02CCC241124A3
:1049400050E0BA01762F6627770F770FA601462B26
:10495000572B242B352BD7012D933C9397FD6BC000
:10496000EC80FD8034979083AA81BB811796ED93EC
:10497000FC931897B981BB2371F18091FB29825078
:10498000823048F5B70184E699E20E94A00F809139
:10499000B9299091BA29EA81FB818483958382E0C9
:1049A0000E94D309811162C02596CDBFDEBFDF9181
:1049B000CF911F910F91FF90EF90DF90CF90BF901C
:1049C000AF909F908F907F906F905F904F903F90AF
:1049D0002F900C94BB230E94A126AA81BB81119623
:1049E000ED92FC92129741E062E070E0CD010E94EE
:1049F0008212811104C081E08093FC2937C0412FCD
:104A000061EEC7010E946E222596CDBFDEBFDF9109
:104A1000CF911F910F91FF90EF90DF90CF90BF90BB
:104A2000AF909F908F907F906F905F904F903F904E
:104A30002F900C947226412F65EE8C819D812596D6
:104A4000CDBFDEBFDF91CF911F910F91FF90EF900F
:104A5000DF90CF90BF90AF909F908F907F906F909E
:104A60005F904F903F902F900C946E222596CDBF73
:104A7000DEBFDF91CF911F910F91FF90EF90DF90FC
:104A8000CF90BF90AF909F908F907F906F905F90EE
:104A90004F903F902F900895CF93DF9300D01F92B7
:104AA000CDB7DEB788E592E289839A83BE016F5F56
:104AB0007F4F84E699E20E94C00F83E692E28983E9
:104AC0009A83BE016F5F7F4F84E699E20E94BB0F1D
:104AD000009791F0DC01ED91FC912081223039F0BA
:104AE0002D3079F7438160EF0E946E22EACFBC013E
:104AF00080EF0E940026E5CF8091682981110E94F5
:104B0000BB232496CDBFDEBFDF91CF910895CF9315
:104B1000DF93C82F1092FC291092FB291092FD29D7
:104B20001092782910927929109272291092632993
:104B30008FEF8093692980936A2980936B298093F2
:104B40006C2980936D2980936E2980936F298093BF
:104B500070291092CA2988E00E947016DFB7F89475
:104B600081E00E94690B82E00E94690B83E00E9451
:104B7000690BDFBFCC2309F440C01092C42982EC3A
:104B800097E08093BD299093BE2980E098E78093B9
:104B9000BF299093C0291092C9291092C12910925F
:104BA000C2290E94F54B8093C32984EF91E0809342
:104BB000B9299093BA2981E08093C52986E0809332
:104BC000C6291092B1291092B2291092B3291092DD
:104BD000B4291092B5291092B6291092B7291092D3
:104BE000B8298FEF9FEF8093BB299093BC290E9437
:104BF000F54B8093C7291092C829DF91CF91089572
:104C0000EF92FF920F931F93CF93DF93DB01ED9110
:104C1000FC91A781B08516960C91169717961C915A
:104C200017971896DC9118971996CC9119971A96A0
:104C30005C911A971B964C911B971C963C911C9764
:104C40001D962C919CE19083ABE3B9E21E96ED900A
:104C5000FC901F97E182F28293E09383FC90F482B0
:104C60001196FC901197F5821296FC901297F6829D
:104C70001396FC901397F7821496FC901497F08685
:104C80001596FC901597F1861696FC901697F2866D
:104C90001796AC91A387948705871687D787C08B13
:104CA000518B428B338B248B858B8EE599E2DF9180
:104CB000CF911F910F91FF90EF900C94A00F8091D6
:104CC000FD2981110EC00E94930980E00E944116C7
:104CD000811104C081E08093FD29089581E00C9446
:104CE000930908958091C829811106C08091CA292D
:104CF000811102C00C945F260895CF930E94851500
:104D0000C82F882311F0C5E819C00E94BF30803138
:104D1000D1F70E94760C8823B1F381E00E948725A9
:104D20000E94722683E799E20E94990F8DEC99E226
:104D30000E94990F84E699E20E94990F8C2FCF91DF
:104D400008958091FD29813049F40E945E168538CE
:104D500029F081E00E9493091092FD290895CF93D4
:104D6000DF9300D01F92CDB7DEB70E94A1268FEF50
:104D70009FEF8B839C8389839A83BE016D5F7F4FF6
:104D800083E50E946228BE016F5F7F4F80E50E942D
:104D9000622881E00E9487250E9472262496CDBF5A
:104DA000DEBFDF91CF9108950F931F93CF93DF93D1
:104DB000EC01088119810E94A126F801118180E08F
:104DC0000E94930981E0111101C080E00E944F15FB
:104DD000082F81E00E949309812F0E9487250E945D
:104DE000722683E799E20E94C50F8DEC99E20E943A
:104DF000C50F8EE599E20E94C50F84E699E20E94F4
:104E0000C50FE881F981018380E28083BE018EE5D0
:104E100099E2DF91CF911F910F910C94A00FFF9217
:104E20000F931F93CF93DF93C82F8B01F42E8B34F6
:104E300009F49FC030F5833409F4BBC078F48530A1
:104E400030F4823008F0B5C081113DC0B2C0813469
:104E500009F456C0823409F402C135C0863409F41D
:104E60005CC038F4843409F446C0853409F44DC07C
:104E70002AC0893409F456C008F061C0873419F596
:104E800098C0853509F453C078F4813538F48E34F0
:104E900008F08FC08C3409F474C015C0823509F451
:104EA00075C008F086C00FC08835A1F028F486359B
:104EB00061F0873541F47DC08A35A9F008F479C0E6
:104EC000803F09F476C0D4EFCBC0EB01888180939A
:104ED000C42907C0FB01808191818093BD299093F3
:104EE000BE29D0E0BDC0EB01888199818093BF29A4
:104EF0009093C029F6CFFB0180818093C629F1CF22
:104F0000EB0188818093C129ECCF4091C22950E008
:104F10008DE799E20E94E74CE4CFFB01808180930A
:104F2000C229DFCFEB0188818093C329DACFFB014F
:104F3000808191818093B9299093BA29D2CFEB01D6
:104F400088818093B12989818093B2298A81809355
:104F5000B3298B818093B4298C818093B5298D816D
:104F60008093B6298E818093B7298F818093B82949
:104F7000B8CFFB01808191818093BB299093BC299C
:104F8000B0CFEB0188818093C729ABCFFB01808133
:104F900091E0811101C090E09093C829882331F0FD
:104FA0000E94A12686E00E9470169BCF0E94722666
:104FB00098CFB8018C2F0E947613D82F813869F4CE
:104FC0000E945E16B8018C2F0E947613D82F811193
:104FD00047C081E08093C72802C0811141C0309151
:104FE0005629832F90E06091502920914F29422F1C
:104FF00050E0E62FF0E08E1B9F0B8417950714F40A
:10500000232F261B81E090E002C0880F991F3A955C
:10501000E2F70197421B5109849FB001859F700DF3
:10502000949F700D112480E090E041E050E08217E1
:1050300068F4DF01A80FB91FEA0102C0CC0FDD1F21
:10504000AA95E2F76C0F7D1F0196F1CF24E1269F10
:10505000C001279F900D1124865F9E4F3ECFD8EE52
:10506000FF2061F08091C728882341F08091C829F2
:10507000811104C00E9441161092C7288D2FDF9124
:10508000CF911F910F91FF9008950F931F93CF938E
:10509000DF938C01FC01C081D181BE016E5F7F4F27
:1050A00041E089810E940F2799819A839FE198832B
:1050B0008983B8018EE599E2DF91CF911F910F911D
:1050C0000C94A00F0F931F93CF939091FD299130D3
:1050D00029F0CF911F910F910C9476138B01C82F5B
:1050E0000E94A126B8018C2F0E947613C82F0E941F
:1050F00072268C2FCF911F910F910895853419F44A
:105100008091C2290895883028F4E82FF0E0E7590B
:10511000FA4F0FC090EC980F903228F4E82FF0E08F
:10512000E75FFA4F06C0803F30F0E82FF0E0E85A22
:10513000FB4F8491089580E00895CF93DF93EC01B5
:10514000E881F98183E28083618361110E94722684
:10515000BE018EE599E2DF91CF910C94A00FEF9202
:10516000FF920F931F93CF93DF93CDB7DEB72897AE
:10517000CDBFDEBF7C0180917229811137C0809143
:10518000FB29833099F18091782981112FC00E94E9
:10519000A126D701ED91FC918181823031F4848187
:1051A000958189839A8342E011C07481658156811B
:1051B0004781308521859285838579836A835B83E6
:1051C0004C833D832E839F83888743E00281138134
:1051D0009E012F5F3F4F60E081E00E94F01F882317
:1051E00029F0E0927B29F0927C2904C061EEC7018E
:1051F0000E949D282896CDBFDEBFDF91CF911F91E1
:105200000F91FF90EF90089580917229823039F4C8
:105210006BEE80917B2990917C290E949D281092B1
:1052200072291092FC2908958091D6298823E1F0F3
:1052300081E00E94690B8091D629813031F4809100
:10524000F129882311F060E001C06BEE8091722992
:10525000823031F480917B2990917C290E949D2895
:105260001092FC291092722908952F923F924F922A
:105270005F926F927F928F929F92AF92BF92CF92E6
:10528000DF92EF92FF920F931F93CF93DF93CDB7EF
:10529000DEB76D97CDBFDEBF8D8B9E8B8091782959
:1052A000823011F0843069F49091C529992349F036
:1052B000E0917B29F0917C2980809180D40119961E
:1052C00004C0812C912CA0E0B0E0E091E429ED8FA6
:1052D0006090E5297090E629E23069F41E821F8211
:1052E000188619861A861B862091E7293091E829AD
:1052F0002C833D8318C09091E7299C839091E829E5
:105300009D839091E9299E839091EA299F839091B2
:10531000EB2998879091EC2999879091ED299A87AC
:105320009091EE299B87823019F0843009F08BC070
:105330008091C529882309F486C050904E29409059
:105340005329F401F085FA8BFC81ED81E88FEE8121
:10535000E98FEF81EA8FE885EB8FE985EC8F3A845E
:105360002B842C813D812B8B3C8BE0E03A89E31729
:1053700009F447C011968D919C9112976816790691
:10538000E9F58C913D8D381339C01B968C911B9794
:10539000581234C01C968C911C9748122FC0323082
:1053A00051F413968D919C9114972B893C89281761
:1053B000390721F548C01396AC9013971496BC900A
:1053C00014971596CC9015971696DC90169717960D
:1053D000EC9017971896FC90189719960C911997BE
:1053E0001A961C911A972F2F388D498D5A8D6B8DD7
:1053F0007C8D832D922D0E94864B29F1EF5F519673
:10540000B5CFE53000F52091F2293091F329809154
:10541000F4299091F029ED8DE9836A827B825C8684
:105420004D862E873F87881F8827881F888B998BFA
:1054300081E1FE01319601900D928A95E1F7F40128
:1054400080858F5F80878D899E896D96CDBFDEBFF9
:10545000DF91CF911F910F91FF90EF90DF90CF9050
:10546000BF90AF909F908F907F906F905F904F9084
:105470003F902F900C94220F21E0FB01408151813D
:105480004817590709F020E0822F0895EF92FF9204
:105490000F931F93CF93DF9300D01F92CDB7DEB74A
:1054A000F82E8B011092FC2980917829DB01EC9178
:1054B000823019F4E73049F404C0833031F4E63027
:1054C00021F48F2D0E94B12CDEC08E2F90E0FC01C4
:1054D0003197ED30F10508F0D4C08827EF5DFE4F1D
:1054E0008F4F0C94674BF80186818823F1F0168268
:1054F000FF2019F0F7E8FF12C4C0D80111968D9172
:105500009C9112972CE33AE229833A838B839C8304
:10551000BE016F5F7F4F84E699E20E94BB0FF801E6
:1055200043816F2D8181928104C043816F2D8181E0
:1055300092810E946E22A5C08F2D877F813E59F4F3
:105540004FEF5FEF6F2DD80111968D919C911297BF
:105550000E944B1896C081E0809372294091BF2928
:105560005091C02960E070E094E0440F551F661F21
:10557000771F9A95D1F7E12CF12C05EB1AE120E089
:105580000E94570A882309F47EC080E090E00E94C0
:10559000B51A79C0F801818192810E94220F809111
:1055A0007229813009F46FC0D8018C918430A1F444
:1055B000B7E8FB1679F060917B2970917C29DB01BB
:1055C000ED91FC9183E28083F1828EE599E20E9465
:1055D000A00F57C082E006C08F2D877F813E09F45F
:1055E00050C083E0809372294091BD295091BE291B
:1055F00060E070E084E0440F551F661F771F8A95B6
:10560000D1F7E12CF12C04E019E220E081E00E94C6
:10561000570A91E09093FC298823A9F180E090E05B
:105620000E94042930C0F8011682FF2019F0F7E823
:10563000FF1227C0D80111968D919C9112972CE3EF
:105640003AE229833A838B839C83BE016F5F7F4F4D
:1056500084E699E20E94BB0FF801618172818F2D6F
:105660000E9400260EC0D80111966D917C91129770
:105670008F2D0E94552E05C0F801818192810E94D4
:10568000220F0E9472262496CDBFDEBFDF91CF91FC
:105690001F910F91FF90EF900895CF93DF93E091CA
:1056A000D229F091D329A081B1811196ED93FC9379
:1056B0001297FD01ED56FF4F882339F087E08C9358
:1056C000808323E038E08AE021C086E08C938083E9
:1056D000FD01E557FF4F80913B29808380913C2954
:1056E000818380913D29828380913E2983838091AB
:1056F0003F29848380914029858380914129868335
:1057000080914229878323E438EC82E1EF012297DC
:105710004FEF5FEF488359832297488359839091D5
:10572000C72941E0490F4093C729219798832297C1
:1057300028833983389780831796ED93FC931897C5
:1057400040E062E070E0CD010E948212811104C04D
:1057500081E08093FC2901C080E0DF91CF91089522
:10576000CF92DF92FF920F931F93CF93DF931F92FD
:10577000CDB7DEB7F82E6B01FB010081118169EC1A
:1057800078E284E00E9462288091CA28909178296A
:105790002091C5298B3150F4923011F0943061F48E
:1057A000222351F0F8013085353030F08093CA283B
:1057B000F1E0FF1299C059C031E0380FF80144817F
:1057C000558166817781082E04C076956795579537
:1057D00047950A94D2F740FF46C08093CA28F1E06B
:1057E000FF1204C082E08093782905C083E0F8129C
:1057F00002C0F09278296AEC78E280E00E94622888
:10580000F82E8823B9F08091D2299091D3290E9453
:10581000220F1092D2291092D3290E9472268AEE6A
:10582000F80181831086B6018EE599E20E94A00FEF
:105830001092782980917829823009F055C0F110B2
:105840000CC081E00E944D2B81114EC083E0898302
:10585000CE0101960E947D2C47C08091CA288F5F9F
:105860008093CA2841C0832F95CF8091D2299091EF
:10587000D3290E94220F1092D2291092D32980910D
:10588000C529F801882341F08085853010F08AEF22
:1058900007C0882319F0F801118203C08AEEF801CD
:1058A00081836BEC79E280E50E94622860917B291C
:1058B00070917C298EE599E20E94A00F8091712958
:1058C0008093C92869EC78E284E00E946228809184
:1058D0007A298093CA286AEC78E280E00E946228E4
:1058E000109278290E9472260F90DF91CF911F911C
:1058F0000F91FF90DF90CF9008950F931F938091A9
:1059000078298250833050F560917B2970917C29F1
:10591000DB01ED91FC9181E090E0A0E0B0E000902F
:10592000CA2804C0880F991FAA1FBB1F0A94D2F768
:1059300080959095A095B095048115812681378139
:1059400080239123A223B32384839583A683B783E3
:105950008091CF281F910F910C94B02B1F910F9124
:105960000895EF92FF920F931F93CF93DF931F92AF
:10597000CDB7DEB79091C7299F5F9093C72981115A
:1059800034C080917829823091F440EC53E060E09B
:1059900070E00090C82804C0440F551F661F771F91
:1059A0000A94D2F740545C4F6F4F7F4F06C040912E
:1059B000BF295091C02960E070E084E0440F551F7A
:1059C000661F771F8A95D1F7E12CF12C0DE71CE2B9
:1059D00020E083E00E94570A8823A1F083E08983B6
:1059E000CE0101960E947D2C0DC08091CA288F5F48
:1059F0008093CA2860917B2970917C298091CF285F
:105A00000E94B02B0F90DF91CF911F910F91FF90CB
:105A1000EF900895EF92FF920F931F93CF93DF9330
:105A20001F921F92CDB7DEB78C01DC01ED91FC9186
:105A300080914E2980937A298091532980937129EE
:105A400086818093C82881818093CF2842815381A9
:105A5000648175814093CB285093CC286093CD28E6
:105A60007093CE2897819093C92800937B29109337
:105A70007C292BE12083828344835583668377834B
:105A800093831086118690917229911106C090918E
:105A90007829911102C0811108C088EE8183B80174
:105AA0008EE599E20E94A00F67C00E94A126F8012E
:105AB000E080F1808BE08093CA288091CF288150CC
:105AC000823008F04FC08FEF9FEF89839A838091D7
:105AD000492990914A298093CB299093CC29BE01E2
